:100000000C942E050C94EF270C941A280C94452878
:100010000C9458050C9458050C9458050C945805EC
:100020000C9458050C9458050C9458050C945805DC
:100030000C9458050C9458050C9458050C945805CC
:100040000C9458050C9458050C94BE280C94580533
:100050000C94BD240C94F3240C9458050C9458056E
:100060000C9458050C9458050C9458050C9458059C
:100070000C9458050C9458050C9458050C9458058C
:100080000C9458050C9458050C945805D129D42982
:10009000C729CB29EB29EB29D829DC29E229E62934
:1000A000456E7465722027682720666F7220686528
:1000B0006C70002062797465732020200009524121
:1000C0004D3A2000092020235265736574733A204D
:1000D000004D687A00526164696F206672657175BF
:1000E000656E63793A200009002020462F573A2098
:1000F0000020005741535020736C61766520532FC8
:10010000573A2000202028536C61766529002E2E56
:100110002E2020204E6F64652023000A57697265E7
:100120006C657373204164647265737361626C659E
:1001300020537472696E6773206F6620506978650A
:100140006C7320285741535029206E6574776F7265
:100150006B004552524F523A205477696E6B6C6572
:1001600020656E74657265642064656661756C7483
:100170002063617365002A2A2A204E6F6465204936
:10018000442076616C7565206F7574206F662072EF
:10019000616E67652E0020736176656420746F2040
:1001A000454550524F4D2E0A504F57455220435906
:1001B000434C4520544845204E4F44452E004E6F39
:1001C00064652049442023002A2A2A53484946547A
:1001D0003A20696E7465726E616C206572726F721E
:1001E0000021547820230021212023002A2A2A5389
:1001F000484946543A20426164207265706F7274B7
:10020000202D20002A2A2A47524F55503A205220AA
:100210003D206D6520213D204C002A2A2A47524F5F
:1002200055503A204C203D206D6520213D20520044
:100230002A2A2A47524F55503A20496E76616C69F6
:1002400064205741535020736C6176652067726F4C
:100250007570204964202D200052782066726F6DE1
:10026000205741535020736C6176652070726F6720
:1002700072616D6D696E6720676174657761792061
:100280006E6F6465002A2A2A436F6D6D616E64206B
:100290006E6F7420666F756E64005D005B002A2AC5
:1002A0002A496E7465726E616C204572726F723A83
:1002B00020436F6D6D616E642068616E646C657261
:1002C000206973206D697373696E67005D005B0060
:1002D0000A0A506C6561736520706F7765722063E0
:1002E00079636C6520746865206E6F64652066694B
:1002F000727374210A003E200073746F707065641D
:100300005D00207365636F6E64735D00206D696EC0
:10031000757465732C200020686F7572732C200033
:1003200020646179732C200072756E6E696E67208F
:10033000666F72200057415350206973205B00099B
:100340000920204374726C2050696E20203D2000EB
:1003500029003C696E76616C69643E202800352076
:10036000284247522900342028425247290033208E
:100370002847425229003220284752422900312082
:1003800028524247290030202852474229000909B3
:100390002020436F6C6F7572732063203D2000290D
:1003A000003C696E76616C69643E20280038202824
:1003B000383030206B487A290034202834303020FF
:1003C0006B487A2900090920204672657120202097
:1003D0002066203D2000090920204C656E67746866
:1003E00020206C203D20000943757272656E7420D8
:1003F0004C454420737472697020706172616D6540
:10040000746572733A00092D2053746F7020574140
:10041000535000202073746F7020286F722073294E
:100420000009092D2053746172742F726573756D04
:1004300065205741535000202072756E002D2D2DE0
:100440002D2D2D2D2D2D2D2D2D2D2D2D2D2D2D2DDC
:100450002D2D2D2D2D2D2D2D2D2D2D2D2D2D2D2DCC
:100460002D2D2D2D2D2D2D2D2D2D2D2D2D2D2D2DBC
:100470002D2D2D0009092D205072696E742074688D
:1004800069732068656C702074657874002020683A
:100490000009092D205361766520706172616D65D8
:1004A0007465727320746F20454550524F4D002083
:1004B00020736176650009092D20536F667477619A
:1004C00072652072657365740020207265736574AF
:1004D0000009092D2053686F7720706572666F726E
:1004E0006D616E63652074696D696E672064617407
:1004F000610020207065726600092D20536574200C
:10050000746865204E6F646520496420746F206EA6
:100510002E206E20696E207B322C20332C202E2E34
:100520002E2C2032307D0020206E6F64656964209F
:100530006E0009092020636F6E74726F6C732074F3
:100540006865204C45442073747269702E206E20BB
:10055000696E207B332D392C2031342D32317D2EA4
:1005600000092D204368616E67652074686520640A
:10057000656661756C74206469676974616C206F6D
:1005800075747075742070696E20746861740020D1
:10059000206C65644374726C206E00090909202088
:1005A0002020352C20666F7220424752000909092D
:1005B00020202020342C20666F72204252470009F0
:1005C000090920202020332C20666F7220474252D8
:1005D0000009090920202020322C20666F72204754
:1005E00052420009090920202020312C20666F7218
:1005F000205242470009090963203D20302C206623
:100600006F722052474220636F6C6F72207769725D
:10061000696E67206F726465722028646566617513
:100620006C74290009090920202020342C20666FD1
:1006300072203430306B487A2C20575332383131A5
:1006400020647269766572730009090966203D208D
:10065000382C20666F72203830306B487A2C205747
:100660005332383132204C4544732028646566612A
:10067000756C7429000909092020202020202D20D4
:100680004D617820313030207265636F6D6D656E1D
:1006900064656420666F72204D6F7465696E6F00CB
:1006A0000909096C203D202320747269636F6C6F07
:1006B00072204C454420706978656C73202864650D
:1006C0006661756C74203D20332900092D20436F2D
:1006D0006E666967757265206164647265737361C3
:1006E000626C65204C45442073747269703A002036
:1006F000206C6564206C2C662C63000A0A436F6EC4
:10070000736F6C6520636F6D6D616E6473206172D1
:10071000653A20287370616365732063616E20728F
:1007200065706C61636520636F6D6D61732900573F
:100730004153502073746F7070656400574153507B
:100740002072756E6E696E67006D73293A20002302
:100750002074696D6573206C61746520283E2000EB
:10076000757300095065722D74696D65722075701E
:1007700064617465206F766572686561643A200013
:100780002D002900090920202061637475616C2007
:100790002800090009000A54696D696E67204461E8
:1007A00074613A2028757365632900506172616D28
:1007B00065746572732068617665206265656E2078
:1007C000736176656420746F20454550524F4D002B
:1007D0002A2A2A204E6F64652049442076616C7570
:1007E00065206F7574206F662072616E67652E00DC
:1007F00020736176656420746F20454550524F4DDB
:100800002E0A504F574552204359434C45205448D7
:1008100045204E4F44452E004E6F646520494420CC
:1008200023004552524F523A20496E76616C6964FA
:10083000206F75747075742070696E2C20005341A0
:10084000564520434F4E46494755524154494F4E15
:1008500020414E4420504F574552204359434C4568
:1008600020544845204E4F44450020636F6E7472FB
:100870006F6C732074686520616464726573736162
:10088000626C65204C45442073747269702E0020A0
:10089000204F75747075742070696E200053415636
:1008A0004520434F4E46494755524154494F4E20EB
:1008B000414E4420504F574552204359434C452008
:1008C000544845204E4F4445004552524F523A201D
:1008D000496E76616C6964204C454420737472697A
:1008E0007020636F6C6F757220776972696E673AFA
:1008F00020004552524F523A20496E76616C69642D
:10090000204C45442073747269702066726571755D
:10091000656E63793A2000467265652052414D3A12
:1009200020002E005245424F4F54494E4700464C3E
:10093000583F4F4B00494D47203E2036346B2C200A
:10094000746F6F2062696700464C583F4F4B2072AE
:100950006573656E64005D203E2000726164696F9E
:10096000205B00554E5368696674696E6720636842
:10097000616E6E656C20746F2000536869667469DF
:100980006E67206368616E6E656C20746F20004630
:100990004C583F4F4B202841434B2073656E7429C0
:1009A000004641494C3A4E4F20464C415348204D59
:1009B000454D00444F4E4500464C41534820494D5B
:1009C00047205452414E534D495353494F4E2053A3
:1009D000554343455353210A00000000010200091A
:1009E0000A000000000403080700000000000000E7
:1009F0000000000000000000000102040810204078
:100A000080010204081020408001020408102040E8
:100A10008001020408102040800202020202020249
:100A2000020404040404040404030303030303038F
:100A30000301010101010101010000200023002642
:100A400000290000002200250028002B00000021C2
:100A500000240027002A00009810272511241FBE1B
:100A6000CFEFD0E4DEBFCDBF13E0A0E0B1E0E4EF14
:100A7000F4E600E00BBF02C007900D92A630B1076C
:100A8000D9F725E0A6E0B3E001C01D92AC3DB20766
:100A9000E1F715E0CEE2D5E004C02197FE010E9407
:100AA000122DCC32D107C9F70E94AD280C947832B0
:100AB0000C940000E0E0F0E0099508958091940422
:100AC000E82FF0E0EB56FB4F3081218162815381AA
:100AD00044818B5F80939404822F90E0830F911D5B
:100AE000E0913A03F0913B03E817F90718F1809180
:100AF000D7039091D80373E0379F800D911D112487
:100B00002223A9F030915A03FC01E30FF11D608309
:100B100030917E01FC01E30FF11D508330917D0186
:100B2000FC01E30FF11D408303962150E9CF81E0E2
:100B30008093580380E0089580919404E82FF0E0BA
:100B4000EB56FB4F408150E060E070E040934C0377
:100B500050934D0360934E0370934F038F5F8093C8
:100B6000940489E08093570381E080937B0180E0C7
:100B700008958AE08093570381E080937B0180E0B1
:100B80000895CF92DF92EF92FF9280919404E82F24
:100B9000F0E0EB56FB4F20814181C280D12CE12C4B
:100BA000F12CC0924403D0924503E0924603F092A8
:100BB0004703C380D12CE12CF12CC0924003D0928A
:100BC0004103E0924203F09243038C5F80939404CC
:100BD00030E0A4E6B0E00E941B2D60934C037093BC
:100BE0004D0380934E0390934F03242F30E00E94D7
:100BF0001B2D609348037093490380934A0390939D
:100C00004B038BE08093570381E080937B0180E06E
:100C1000FF90EF90DF90CF90089580E008951092BC
:100C20007F016FE277E082E395E00E94C42581E0D6
:100C300008950F931F93CF9366E977E082E395E0E1
:100C40000E94C425C1E007EF13E064E977E082E386
:100C500095E00E9493254AE050E06C2F82E395E0F6
:100C60000E943E2662E977E082E395E00E949325A8
:100C7000F8014081518162817381141615061606B0
:100C8000170634F58091E7039091E803A091E903FA
:100C9000B091EA03481B590B6A0B7B0B2AE030E04A
:100CA00082E395E00E94312664E877E082E395E0F4
:100CB0000E949325F80140815181628173812AE06D
:100CC00030E082E395E00E94812662E877E002C08E
:100CD00060E877E082E395E00E94C4250C5F1F4F37
:100CE000CF5FC03109F0B1CF63E677E082E395E0F2
:100CF0000E9493254091E7035091E8036091E90336
:100D00007091EA032AE030E082E395E00E94312608
:100D100060E677E082E395E00E94C4256FE477E027
:100D200082E395E00E9493254AE050E065E070E0A0
:100D300082E395E00E94C92669E477E082E395E0CA
:100D40000E949325409151045091520460915304A4
:100D5000709154042AE030E082E395E00E946F260F
:100D600081E0CF911F910F91089581E080937F01E1
:100D70000E940829609348047093490480934A04B0
:100D800090934B046CE377E082E395E00E94C425E6
:100D900081E0089590919404E92FF0E0EB56FB4F29
:100DA00080819F5F90939404811103C0109254033B
:100DB0001AC0813029F41092540380937C0113C02F
:100DC00091E09093540390E00297909356038093A0
:100DD00055030E9408296093500370935103809338
:100DE00052039093530380E00895CF92DF92EF92E5
:100DF000FF920F931F93CF93C82F0E941429C09086
:100E0000EB03D090EC03E090ED03F090EE038B0148
:100E10009C010C191D092E093F096C157D058E05D5
:100E20009F0530F4D901C8010197A109B10902C099
:100E3000D901C80124E0C29FF0011124ED50FC4FFC
:100E40004081518162817381481759076A077B0786
:100E500020F480839183A283B383CF911F910F915C
:100E6000FF90EF90DF90CF9008956091D70370913D
:100E7000D80340915B0350915C038091D50390911E
:100E8000D6030C941A2F80919404E82FF0E0EB56CF
:100E9000FB4F7081618142818D5F809394048091CA
:100EA000D7039091D80320913A0330913B03211549
:100EB0003105B1F050915A03FC01E50FF11D70832B
:100EC00050917E01FC01E50FF11D608350917D0181
:100ED000FC01E50FF11D4083039621503109E7CF56
:100EE0000E94350781E08093580380E00895609167
:100EF000D5037091D60340915B0350915C038091C0
:100F0000D7039091D8030C941A2FCF93DF9380913D
:100F10009404E82FF0E0EB56FB4FC0818F5F809385
:100F200094048C2F8370DC2FDC708330A9F0DC30CC
:100F300099F0882351F0C0FF03C00E94350702C01A
:100F40000E94770781E080935803DD2329F0C3FBDB
:100F5000CC27C0F9C093590380E0DF91CF91089569
:100F6000CF93DF9300D000D01F92CDB7DEB7809132
:100F70009404E82FF0E0EB56FB4F90819983918128
:100F80009A8392819B8393819C838C5F809394044A
:100F90001D8267E871E0CE0101960E942A2F892BFD
:100FA00011F40E945A0580E00F900F900F900F905F
:100FB0000F90DF91CF9108959091D5048091E40432
:100FC00098131AC0E0919404F0E0EB56FB4F808137
:100FD000873591F48181813479F48281833561F49C
:100FE0008381803549F48481E82FF0E0E25DFD4F94
:100FF0009081911180933E0380E008959091D504F3
:101000008091E404981325C0E0919404F0E0EB563D
:10101000FB4F80818735E9F481818134D1F482816D
:101020008335B9F483818035A1F48481882389F0E4
:101030009581943011F0983061F42681263048F47F
:1010400090933D0320933C0390E090933B03809367
:101050003A0380E00895CF9390919404E92FF0E053
:10106000EB56FB4FC081818122819D5F9093940458
:101070009091D5043091E404931332C030E83C0FD2
:10108000353070F060E372E082E395E00E949325D2
:101090004AE050E06C2F82E395E00E94452620C094
:1010A000C0934F0489130DC0821308C080934E046F
:1010B00080934D0481E080934C0412C06AE172E099
:1010C00004C0291307C064E072E082E395E00E9447
:1010D000C42506C080934E0420934D0410924C0406
:1010E00080E0CF9108950C945A320C946232909122
:1010F000D5048091E40498133BC0E0919404F0E09F
:10110000EB56FB4F8081873599F58181813481F5DC
:101110008281833569F58381803551F564818EEF55
:10112000860F8530F8F46093E40481E090E00E943B
:10113000750860E082E090E00E94750881E080938D
:10114000E6046EEB71E082E395E00E9493254AE0AD
:1011500050E06091E40482E395E00E943E2666E957
:1011600071E002C066E771E082E395E00E94C42569
:1011700080E0089580E00895CF93DF9382E090E0CF
:101180000E94730893E090933E03882361F183E00B
:1011900090E00E947308D82F80933E0384E090E093
:1011A0000E94730880933D0385E090E00E947308DD
:1011B00080933C0386E090E00E947308C82F87E08C
:1011C00090E00E9473082C2F30E0322F2227280F46
:1011D000311D30933B0320933A0361E08D2FDF9163
:1011E000CF910C94EC29DF91CF91089560913E034B
:1011F00083E090E00E94750860913D0384E090E0F8
:101200000E94750860913C0385E090E00E9475089B
:1012100060913B0386E090E00E94750860913A037C
:1012200087E090E00E94750861E082E090E00C9415
:1012300075080E94F6086BEA77E082E395E00E9469
:10124000C42581E008950E94F60880E00895CF93B8
:10125000DF9300D0CDB7DEB72091D8053091D90506
:10126000CE0101962115310519F48C5D954002C01F
:10127000821B930B9A83898367E179E082E395E08F
:101280000E94932569817A814AE050E082E395E0EB
:101290000E94D0260F900F90DF91CF9108958F92EA
:1012A0009F92AF92BF92CF92DF92EF92FF926BEF3D
:1012B00076E082E395E00E94C4256FEE76E082E35B
:1012C00095E00E9493256BEC76E082E395E00E9426
:1012D000C42560EA76E082E395E00E94C42565E7D4
:1012E00076E082E395E00E94C42569E476E082E33B
:1012F00095E00E94C42564E276E082E395E00E94D6
:10130000C42565EF75E082E395E00E94C42563EE95
:1013100075E082E395E00E94C42561ED75E082E30B
:1013200095E00E94C4256FEB75E082E395E00E9492
:10133000C4256DEA75E082E395E00E94C4256BE95F
:1013400075E082E395E00E94C4256FE875E082E3D2
:1013500095E00E94932561E675E082E395E00E94A6
:10136000C42562E375E082E395E00E94C42567E24C
:1013700075E082E395E00E94932569EF74E082E3D3
:1013800095E00E94C42562EF74E082E395E00E943C
:10139000932561ED74E082E395E00E94C42569EC39
:1013A00074E082E395E00E94932566EB74E082E3AB
:1013B00095E00E94C4256FEA74E082E395E00E9404
:1013C000932561E974E082E395E00E94C4256DE80D
:1013D00074E082E395E00E94932564E774E082E381
:1013E00095E00E94C4256DE374E082E395E00E94DD
:1013F000C42567E374E082E395E00E94932561E2EF
:1014000074E082E395E00E94C42563E174E082E326
:1014100095E00E94932566E074E082E395E00E94E7
:10142000C42582E395E00E94C02567EE73E082E365
:1014300095E00E94C42566ED73E082E395E00E948A
:10144000932560913A0370913B034AE050E082E3B8
:1014500095E00E945D2665EC73E082E395E00E94D2
:10146000932580913D03843029F0883031F46DEA72
:1014700073E013C069EB73E010C061EA73E082E3CC
:1014800095E00E9493254AE050E060913D0382E39D
:1014900095E00E943E266FE973E082E395E00E94AA
:1014A000C4256EE873E082E395E00E949325809165
:1014B0003C03823099F038F4882369F08130B9F424
:1014C0006EE773E024C0843079F058F0853079F409
:1014D0006EE573E01CC066E873E019C066E773E070
:1014E00016C06EE673E013C066E673E010C062E5F6
:1014F00073E082E395E00E9493254AE050E060911A
:101500003C0382E395E00E943E2660E573E082E3BF
:1015100095E00E94C4256FE373E082E395E00E94AA
:10152000932560913E03062E000C770B4AE050E0B5
:1015300082E395E00E94D0260E94270965E373E0CC
:1015400082E395E00E94932580917F01882309F42E
:1015500085C00E940829C0904804D0904904E090BA
:101560004A04F0904B049B01AC012C193D094E0933
:101570005F0969017A0134EFC30E31E0D31EE11C2B
:10158000F11C68E273E082E395E00E949325C701B5
:10159000B60120E03CE546E255E00E94D12C4AE04D
:1015A00050E0622F82E395E00E943E2660E273E005
:1015B00082E395E00E949325C701B60120E83EEE44
:1015C00046E350E00E94D12CCA01B90128E130E085
:1015D00040E050E00E94D12C4AE050E082E395E0E8
:1015E0000E943E2667E173E082E395E00E94932526
:1015F000C701B60120E63AEE40E050E00E94D12C4F
:101600008CE3882E912CA12CB12CCA01B901A50123
:1016100094010E94D12C4AE050E082E395E00E94C0
:101620003E266CE073E082E395E00E949325C701BB
:10163000B60128EE33E040E050E00E94D12CCA0110
:10164000B901A50194010E94D12C4AE050E082E347
:1016500095E00E943E2662E073E002C069EF72E00E
:1016600082E395E00E94C42581E0FF90EF90DF9037
:10167000CF90BF90AF909F908F9008951F93CF937E
:10168000DF93C0913304D0E0CC5CDB4F6CE871E0B9
:10169000CE010E94332F182F6CE871E0CE010E941A
:1016A000162FE09133042E2F210F2093330400973F
:1016B00069F0FC0101900020E9F7E20FE81BE093DC
:1016C0003304DF91CF911F910C94F82E80E090E0CD
:1016D000DF91CF911F9108950F931F93CF93DF93C5
:1016E0000E943E0B8C010E943E0BC82F0E943E0BB5
:1016F000D82FC83061F0C43051F062EF78E082E357
:1017000095E00E9493254AE050E06C2F0BC0D63044
:1017100070F069EC78E082E395E00E9493254AE05E
:1017200050E06D2F82E395E00E9445260EC0109395
:101730003B0300933A03C0933D03D0933C036DE910
:1017400078E082E395E00E94C42581E0DF91CF91AB
:101750001F910F910895CF930E943E0BC82F8DEFDC
:101760008C0F873020F082EF8C0F883000F5C0930B
:101770003E036FE878E082E395E00E949325609154
:101780003E03062E000C770B4AE050E082E395E022
:101790000E94C9266AE678E082E395E00E94C425AB
:1017A0006EE378E082E395E00E94C4250DC062E21A
:1017B00078E082E395E00E9493254AE050E06C2FA8
:1017C00082E395E00E94452681E0CF9108950E9432
:1017D0003E0B8093E4049EEF980F953010F5682F30
:1017E00081E090E00E94750860E082E090E00E9455
:1017F000750881E08093E60468E178E082E395E093
:101800000E9493254AE050E06091E40482E395E071
:101810000E943E2660EF77E082E395E00E94C425B7
:10182000089560ED77E082E395E00E94C425089575
:10183000CF93DF9300D01F92CDB7DEB790915A03BC
:10184000E1E0F0E0EC0FFD1FE90FF11D80838091D6
:101850007E01E1E0F0E0EC0FFD1FE80FF11D608379
:1018600080917D01E1E0F0E0EC0FFD1FE80FF11D3C
:10187000408329816A81862F90E0A0E0B0E0BA2FF2
:10188000A92F982F8827A22B2B81BC01CD01622B79
:101890000F900F900F90DF91CF9108950F931F93AA
:1018A000CF93DF9390919404E92FF0E0EB56FB4F38
:1018B000808161814281C381D48115819A5F909337
:1018C00094040E94180CAB01BC01E091D703F09185
:1018D000D80320913A0330913B032115310539F1AA
:1018E0000081818190E0A0E0B0E0BA2FA92F982F6D
:1018F0008827A02B0281802B481759076A077B078E
:1019000091F480915A03DF01A80FB11DCC9380910F
:101910007E01DF01A80FB11DDC9380917D01DF0105
:10192000A80FB11D1C93339621503109D6CF81E009
:101930008093580380E0DF91CF911F910F9108951C
:10194000CF92DF92EF92FF920F931F934FEF6FEFC3
:101950008FEF0E94180C6B017C0180917B01882322
:1019600049F010927B010E94770781E08093110378
:1019700080935803809111038823C1F010921103C2
:101980001092100310920F0381E080930E032091B8
:10199000440330914503409146035091470361E071
:1019A00070E080E090E00E948A28F4C080910F03EC
:1019B000909110030A9708F0EDC080910E038230D9
:1019C00009F45FC040F4813009F0DEC010920D03CD
:1019D00010920C0307C0833009F479C0843009F4F5
:1019E000A1C0D2C080910C0390910D03A0E0B0E0A3
:1019F0004091440350914503609146037091470321
:101A000084179507A607B707E8F420913A033091A9
:101A10003B0340E050E060E070E0CB010E948A2888
:101A2000A70196018091D9039091DA030E941923AE
:101A300080910C0390910D03019690930D03809378
:101A40000C03D0CF81E08093580382E080930E0393
:101A50000E940829C0904003D0904103E0904203C7
:101A6000F0904303DC01CB018C0D9D1DAE1DBF1D0D
:101A70008093080390930903A0930A03B0930B0388
:101A800089C00E9408290091080310910903209140
:101A90000A0330910B03C0904003D0904103E090C3
:101AA0004203F09043030C151D052E053F0538F049
:101AB000601771078207930708F46CC006C0061709
:101AC00017072807390708F465C083E028C00E947B
:101AD000770781E0809358030E9408296B017C01FD
:101AE000209148033091490340914A0350914B03A0
:101AF00060914C0370914D0380914E0390914F0380
:101B00000E948A28C60ED71EE81EF91EC09208033E
:101B1000D0920903E0920A03F0920B0384E08093D1
:101B20000E0338C00E940829009108031091090390
:101B300020910A0330910B03C0904003D0904103E1
:101B4000E0904203F09043030C151D052E053F0560
:101B500030F0601771078207930730F41BC0061737
:101B6000170728073907B0F080910F0390911003F1
:101B700001969093100380930F030A9718F081E069
:101B80008093110381E0CBCF62E571E082E395E0C1
:101B90000E94932580E01F910F91FF90EF90DF90BE
:101BA000CF900895E0911203E11104C0E091500438
:101BB000EE2331F0E83021F0E23011F010925703BB
:101BC000F0E0EE0FFF1FEF5CFE4F0190F081E02D83
:101BD0000995809312030895853538F4482F440FF2
:101BE000840F40E0682F809511C08A3A40F48555F3
:101BF000482F440F480F642F609580E007C08A5A31
:101C0000482F440F840F482F409560E00C94180C27
:101C1000FF920F931F93CF93DF9380917B018823D3
:101C200039F010927B0180914C0390914D0309C0D3
:101C300080910C0190910D0101968F3F910509F063
:101C400028F490930D0180930C0104C010920D01B3
:101C500010920C01C091D703D091D803F0900C01E1
:101C600000E010E080913A0390913B0308171907B8
:101C7000D0F48F2D800F0E94EC0D90915A03FE013D
:101C8000E90FF11D808380917E01FE01E80FF11DB7
:101C9000708380917D01FE01E80FF11D6083239622
:101CA0000F5F1F4FDFCF81E08093580380E0DF910B
:101CB000CF911F910F91FF900895DF92EF92FF92C5
:101CC0000F931F93CF93DF9380917B01882319F0AB
:101CD00010927B010EC080910A0190910B01019638
:101CE0008F3F910509F028F490930B0180930A012E
:101CF00004C010920B0110920A01C091D703D09139
:101D0000D803D0900A0100E010E0E12CF12C6091A2
:101D10003A0370913B03E616F706F8F4C8010E94F7
:101D2000BD2C8D2D860F0E94EC0D90915A03FE0163
:101D3000E90FF11D808380917E01FE01E80FF11D06
:101D4000708380917D01FE01E80FF11D6083239671
:101D50008FEFE81AF80A1395DACF81E080935803E1
:101D600080E0DF91CF911F910F91FF90EF90DF9076
:101D70000895CF93DF9326E040E855E260E070E0FD
:101D800082E395E00E94582481E090E00E9473086D
:101D90008093E4041092E6042DE4482F6BE286ED74
:101DA00094E00E94B31A6091800186ED94E00E9455
:101DB000D31D8FEF93E00E9473088F5F8093E5043B
:101DC00080E090E00E94730891E0833009F490E095
:101DD0009093E704833069F063E080E090E00E9434
:101DE000750860E082E090E00E9475081092E504BA
:101DF00002C00E94BC086091E5048FEF93E00E944E
:101E000075086BE171E082E395E00E9493256EE036
:101E100071E082E395E00E9493254AE050E06091F2
:101E2000E40482E395E00E943E2664E071E082E3F0
:101E300095E00E94C42563EF70E082E395E00E9484
:101E4000932522E030E040E050E060EA70E482E375
:101E500095E00E94BD2761EF70E082E395E00E946B
:101E6000932560E971E082E395E00E94B72569EE71
:101E700070E082E395E00E9493254AE050E063E041
:101E800070E082E395E00E94C92667EE70E082E38D
:101E900095E00E9493256DE971E082E395E00E9450
:101EA000D62565ED70E082E395E00E9493254AE037
:101EB00050E061EB71E082E395E00E94C92661ED9C
:101EC00070E082E395E00E94932564EC70E082E389
:101ED00095E00E9493254AE050E06091E50482E39A
:101EE00095E00E943E266DEB70E082E395E00E9453
:101EF00093254FEF50E460E070E080E091E0092E20
:101F0000000CAA0BBB0B481B590B6A0B7B0B2AE07E
:101F100030E082E395E00E94312663EB70E082E3DB
:101F200095E00E9493250E94270982E395E00E9494
:101F3000C02568EB71E082E395E00E94B72581EE51
:101F400094E00E946F21882319F063EE71E002C0D3
:101F500063EF71E082E395E00E94D62582E395E08D
:101F60000E94C02560EA70E082E395E00E94C425EB
:101F700010923F0380913C038230E1F050F48823BB
:101F800091F0813071F510925A0392E090937E01A6
:101F900016C08430F1F0B0F0853019F582E08093FE
:101FA0005A0381E01AC010925A0381E080937E01A7
:101FB00082E005C091E090935A0310927E018093D5
:101FC0007D010FC082E080935A0310927E0181E070
:101FD000F6CF81E080935A0382E080937E011092D5
:101FE0007D0180913D03883019F482E080933F03A6
:101FF00080913A0390913B03892B89F080E190E036
:102000000E94BC28EC0120913C0380913D03280FE5
:1020100060913A0370913B0340913E0309C080E117
:1020200090E00E94BC28EC0122E043E061E070E017
:10203000CE010E941822D093DA03C093D903809175
:102040003A0390913B039C01220F331F820F931F91
:102050000E94352D9093D6038093D5038091D903A8
:102060009091DA030E9467239093D8038093D7035B
:1020700080913A0390913B039C01220F331F820F02
:10208000931F90935C0380935B03E7E3F4E0129269
:1020900012921292129283E0E33FF807C1F7809107
:1020A000E40490E001974FE0489F9001499F300D74
:1020B00011243093D3042093D2040E940829609302
:1020C00048047093490480934A0490934B040E94FF
:1020D00014296093EB037093EC038093ED039093CA
:1020E000EE0380E00E94F5068091F3039091F403E3
:1020F000A091F503B091F6038093E7039093E80372
:10210000A093E903B093EA0361E081E10E94EC2926
:1021100061E083E10E94EC2961E082E10E94EC2908
:102120008091D9039091DA03DF91CF910C945422DE
:1021300040E35FEE67E181EE94E00E940A2120E037
:1021400042E064E086ED94E00C94F017CF93DF93C7
:102150008091390381110AC066EF72E082E395E055
:102160000E94932581E08093390375C1813009F085
:1021700068C082E395E00E946B23892B09F46BC150
:1021800082E395E00E948523E0913304883011F0CA
:102190008F3761F4EE2319F0E150E0933304E091BE
:1021A0003304F0E0EC5CFB4F108255C18D3081F4BC
:1021B000F0E0EC5CFB4F108282E395E00E946B2321
:1021C000181619068CF482E395E00E948523F4CF5B
:1021D000E33109F426C191E09E0F90933304F0E0BF
:1021E000EC5CFB4F808337C18091E604882341F08B
:1021F00060ED72E082E395E0DF91CF910C94C4250D
:1022000082E0809339031092330424E334E0F9012F
:102210002F5F3F4F8081803231F4809133048F5F94
:1022200080933304F4CFF0933803E0933703109294
:10223000360389E08093350385E08093340381E0A1
:1022400006C1823009F0F0C0D0913304ED2FF0E0E8
:10225000EC5CFB4FF0933803E0933703A091340319
:1022600084E0A89FD0011124AD5ABE4F9C911196D5
:102270008C9121E020933303A92FB82F3E2F2F2FCD
:102280008D918823B1F09191911105C0309337035E
:102290002093380312C0891751F0309337032093ED
:1022A000380310923303981754F0C1E009C0DF5F80
:1022B000E5CFF0933803E0933703C0E001C0CFEFE0
:1022C00090913303992329F0882319F01092330356
:1022D000CFEF80913303882309F445C0E0913703A1
:1022E000F091380380818F7D21F010923303C1E09B
:1022F0003AC06EEC72E082E395E00E94932564E3BD
:1023000074E082E395E00E94B7256CEC72E082E312
:1023100095E00E94C425E0913403A4E0EA9FF00117
:102320001124ED5AFE4F8281938190933203809362
:102330003103892B31F0D093330483E08093390348
:1023400012C06EE972E082E395E00E94C42510920B
:10235000330484E1E4E3F4E0DF011D928A95E9F7B8
:102360001092390378C080913303811132C081E02B
:102370008093330340913603642F70E0209135033E
:1023800030E0CB0101968217930711F410923303CA
:1023900090913403CF3F71F490933503892F90E0EF
:1023A000861B970B97FD019695958795840F8093D3
:1023B00034030FC090933603291B31092F5F3F4F21
:1023C00037FF02C02F5F3F4F35952795290F209388
:1023D000340382E00E94F5068091330381113BC0F3
:1023E0006CE972E082E395E00E94932564E374E077
:1023F00082E395E00E94B7256AE972E082E395E006
:102400000E94C42565E872E082E395E00E94C4253D
:102410001092390384E1E4E3F4E0DF011D928A9530
:10242000E9F71092330417C0E0913103F0913203C1
:102430000995882359F01092390384E1E4E3F4E02C
:10244000DF011D928A95E9F71092330483E0DF9152
:10245000CF910C94F506DF91CF91089510929504D9
:10246000109294040E9408296A3071058105910533
:1024700008F468C086ED94E00E94C717882309F429
:102480005EC08091F0048093D5048091F104809324
:10249000D4048E3FA1F469E572E082E395E00E94E6
:1024A000C4259091D5048091E404981308C02FE0CE
:1024B00040E061EE74E086ED94E00E94752080912A
:1024C000D5048F3F21F49091D404913061F0909124
:1024D000E404891302C0811106C090914F0489134E
:1024E0002DC0882359F19091EE0481E0911101C033
:1024F00080E0809355044091F20450E064EF74E072
:1025000085E994E00E941A2F1092F2049091300312
:1025100081E0892780933003882311F061E001C0B6
:1025200060E083E10E94282A81E0809394048091F6
:102530009504813128F01092950401C0789480E0D0
:102540008093500408950F931F930E941429609361
:10255000EF037093F0038093F1039093F2030E94D2
:1025600008296093E3037093E4038093E503909359
:10257000E6030091DF031091E0032091E103309125
:10258000E203061717072807390778F561E081E1AC
:102590000E94282A60E083E10E94282A60E082E10C
:1025A0000E94282A8091E3039091E403A091E5031F
:1025B000B091E603AC01BD0146505F4F6F4F7F4FB6
:1025C0004093DB035093DC036093DD037093DE03E1
:1025D0008E579B4EAF4FBF4F8093DF039093E00326
:1025E000A093E103B093E20321C00091DB031091BB
:1025F000DC032091DD033091DE030617170728075F
:102600003907A0F460E081E10E94282A8091DF036D
:102610009091E003A091E103B091E2038093DB038A
:102620009093DC03A093DD03B093DE038091EF036E
:102630009091F003A091F103B091F2038093EB032A
:102640009093EC03A093ED03B093EE030E94A610C9
:1026500084E00E94F5060E9414296093EB037093B6
:10266000EC038093ED039093EE030E942E1285E01D
:102670000E94F50680917F01882379F00E94142939
:102680006093EB037093EC038093ED039093EE0360
:102690000E94D20D8CE00E94F506809159038111B1
:1026A0004AC080915403811105C080917C01811141
:1026B00010C041C00E94082900915003109151039D
:1026C00020915203309153036017710782079307DB
:1026D00060F30E9414296093EB037093EC038093E2
:1026E000ED039093EE03E0915703F0E0EE0FFF1F30
:1026F000E15FFE4F0190F081E02D099580917C0112
:10270000811114C00E94082920915503309156036D
:10271000DC01CB01820F931FA11DB11D80935003DB
:1027200090935103A0935203B093530310927C01F2
:102730008DE00E94F5060E9414296093EB037093CC
:10274000EC038093ED039093EE038091580388236C
:1027500061F080915903811108C08091D903909153
:10276000DA030E945422109258038EE00E94F5066C
:102770000E9414290091EF031091F0032091F103BE
:102780003091F203601771078207930758F40095A0
:10279000109520953095DC01CB01800F911FA21F71
:1027A000B31F06C0DC01CB01801B910BA20BB30B46
:1027B0008093EB039093EC03A093ED03B093EE03AF
:1027C0008091EB039091EC03A091ED03B091EE03A7
:1027D00040912F0450913004609131047091320483
:1027E000481759076A077B0740F480932F0490939A
:1027F0003004A0933104B09332041F910F910895D7
:10280000AF92BF92CF92DF92EF92FF920F93CF934E
:10281000DF93C82F5B01D42F90912F0381E089278C
:1028200080932F03882311F061E001C060E082E112
:102830000E94282A0E9408296B017C0100E02D2FAC
:10284000A5016C2F86ED94E00E94E81C0E940829E7
:10285000DC01CB018C199D09AE09BF090697A105C2
:10286000B10598F08091510490915204A0915304C5
:10287000B09154040196A11DB11D80935104909311
:102880005204A0935304B0935404DF91CF910F915D
:10289000FF90EF90DF90CF90BF90AF9008950F938F
:1028A0001F93CF93DF93D091950410925803C0915A
:1028B0002E03C1112AC1D53009F0B7C20E940829E0
:1028C00060932A0370932B0380932C0390932D0322
:1028D0008091280390912903019690932903809376
:1028E00028033091D404313009F09FC22091940420
:1028F000E22FF0E0EB56FB4F8081082E000C990B85
:1029000090932703809326032F5F20939404181637
:1029100019061CF430930E0109C010920E01919516
:102920008195910990932703809326038091260334
:1029300090912703853191050CF077C220913A03DD
:1029400030913B032817390708F46FC2982F990F6D
:10295000890F8093250360910E012091D703309158
:10296000D803662311F140915B0350915C03FA0197
:10297000E81BF109E20FF31FADE5B3E0982FDE2F5E
:102980007F2F992321F011911D939150FACF942F0D
:10299000981B892FAD2FB72FF901E40FF51F88235E
:1029A000F9F09E9192938150FACFD9010DE513E091
:1029B000A901982F992341F0FA017191AF01F80113
:1029C00071938F019150F6CF90915B03981BF901A1
:1029D000E80FF11D992321F081918D939150FACF49
:1029E00080914C04882321F181E080935803209149
:1029F000D7033091D80380912503ADE5B3E066237A
:102A000041F0F901882309F410C29D9191938150FE
:102A1000F9CFE0915B03F0915C03E81BF109E20F51
:102A2000F31F882309F401C29D9191938150F9CF3E
:102A300080912A0390912B03A0912C03B0912D0338
:102A4000855B9F4FAF4FBF4F80932103909322032D
:102A5000A0932303B09324039091E404662319F018
:102A600080914E0402C080914D04891710F082E0DD
:102A700003C08093200381E080932E0386E00E94B0
:102A8000F50680912E0340912A0350912B0360910B
:102A90002C0370912D03823081F42091E40430E006
:102AA00022503109EFE0E29FC001E39F900D112415
:102AB000092E000CAA0BBB0B83C02091200330E031
:102AC00022503109EFE0E29FC001E39F900D1124F5
:102AD000092E000CAA0BBB0B840F951FA61FB71F56
:102AE00080931C0390931D03A0931E03B0931F03B8
:102AF0000F96A11DB11D8093180390931903A09305
:102B00001A03B0931B03C5E090C10E9408290091ED
:102B100021031091220320912303309124030617EF
:102B200017072807390748F0D53081F48091D4047D
:102B3000813061F48093580306C06AEF71E082E34C
:102B400095E00E94D62510922E036EC180912E032F
:102B5000982F9D7F913009F0A9C00E94082900910B
:102B600018031091190320911A0330911B03601769
:102B7000710782079307D0F16CEF71E082E395E073
:102B80000E94D62580912E03813051F582E08093FA
:102B90002E032091E40430E0225031094FE0429F9F
:102BA000C001439F900D1124092E000CAA0BBB0BF2
:102BB00040912A0350912B0360912C0370912D03B7
:102BC000840F951FA61FB71F80931C0390931D03AE
:102BD000A0931E03B0931F030896A11DB11D8BCFB8
:102BE00010922E0381E0809358031EC1D53009F066
:102BF0008ACF9091D40480912003981384CF809140
:102C00009404E82FF0E0EB56FB4F208130E0409138
:102C10002603509127032417350779F06CEE71E0F5
:102C200082E395E00E9493254AE050E060912E03F4
:102C300082E395E00E94452666CF91E0980F80914F
:102C400025033196A9E9B3E0ED01282F222321F0D5
:102C5000319139932150FACF980F90939404909129
:102C60000E012091D7033091D803992339F0F9014F
:102C7000882391F09D9191938150FACFE0915B036D
:102C8000F0915C03E81BF109E20FF31F882321F0A8
:102C90009D9191938150FACF80912E03813011F450
:102CA00087E001C08BE00E94F5066CCF823009F00E
:102CB000B0C00E94082900911C0310911D032091AF
:102CC0001E0330911F03601771078207930708F4F2
:102CD0001ACF009118031091190320911A03309113
:102CE0001B03061717072807390708F442C085E0B9
:102CF0008093570480912603809358048091250384
:102D0000ADE5B3E0E9E5F4E0982F992321F02D91AA
:102D100021939150FACF8E5F8093560480910E01DB
:102D2000882319F080914D0402C080914E04809355
:102D3000200388E00E94F5064091560467E574E0A0
:102D4000809120030E94001489E00E94F5060E94F1
:102D5000082900911C0310911D0320911E0330913E
:102D60001F03601771078207930798F467EE71E0FD
:102D700002C061EE71E082E395E00E9493256091CC
:102D80002803709129034AE050E082E395E00E9415
:102D90005D2620910E0190914E048091E40422233F
:102DA00051F0981718F410922E0310C020914D0482
:102DB0002817C8F306C09817B0F390914D049817E0
:102DC00090F39093200383E080932E038AE00E9487
:102DD000F506C0912E03C11104C081E08093580311
:102DE00024C02091200330E0215031094FE0429F60
:102DF000C001439F900D1124092E000CAA0BBB0BA0
:102E000040912A0350912B0360912C0370912D0364
:102E100063CE10922E0381E08093580368EC71E03A
:102E200082E395E00E94C425C0E08C2FDF91CF9112
:102E30001F910F9108950F931F9380911703811194
:102E400028C08091D404813009F060C080931703BA
:102E50000E9408292091E40430E0A9014250510960
:102E6000E4E6E49F9001E59F300D11248901330FC2
:102E7000220B330BDC01CB01800F911FA21FB31F6C
:102E80008093130390931403A0931503B093160338
:102E90003FC00E9408290091130310911403209150
:102EA000150330911603601771078207930780F1AD
:102EB000109217031092130310921403109215032B
:102EC000109216038CE08093570483E0809358049B
:102ED00085E08093590410925A0480913E038093B8
:102EE0005B0480913A0380935C0480913D0380935E
:102EF0005D0480913C0380935E0488E080935604D7
:102F000048E067E574E081E00E94001480E001C0C1
:102F10008CE01F910F910895089581E08093EA0459
:102F20008091E8049091E904DC01ED91FC91048426
:102F3000F585E02D09951092EA040895FC01F894B6
:102F40008CB581878DB582878CB5837F8CBD8CB520
:102F50008F7D8CBD8CB58C7F8CBD8DB58E7F8DBDEE
:102F600060E082810C94282ACF93DF93EC0161E02A
:102F70008A810E94282A89858CBD8A858DBD809191
:102F8000EA04811101C07894DF91CF910895F894FB
:102F90002091F304233021F42091EF0421110FC07C
:102FA0002091F304233011F4789407C0DC01ED91F3
:102FB000FC910288F389E02D099580E00895DC01F9
:102FC000ED91FC910488F589E02D61E0099581E09F
:102FD00008958EBD00000DB407FEFDCF8EB5089597
:102FE000FC0182E592E0918380836283438381E0E8
:102FF0008093F30416828FE1878320870895CF930F
:10300000C62FDC01ED91FC910480F581E02D09953E
:10301000882361F08091F104C81711F0CF3F29F4A3
:103020009091ED0481E0911101C080E0CF9108956D
:103030003F924F925F926F927F928F929F92AF9248
:10304000BF92CF92DF92EF92FF920F931F93CF9395
:10305000DF93EC01162F5A01822E902E312CCE2CAC
:10306000D12CE12CF12CE881F9810190F081E02D47
:1030700001E0282DA501612FCE0109950E940829A4
:103080002B013C010E940829DC01CB018419950920
:10309000A609B7098C159D05AE05BF0538F4612F4B
:1030A000CE010E94FF17882369F304C03394931460
:1030B000D0F680E0DF91CF911F910F91FF90EF90BC
:1030C000DF90CF90BF90AF909F908F907F906F9048
:1030D0005F904F903F9008951F93CF93DF93EC0143
:1030E000162FE881F981008CF18DE02D0995812F53
:1030F0008F770E94E91780E00E94E917182FE88176
:10310000F981028CF38DE02DCE010995812FDF919D
:10311000CF911F9108950F931F93CF93DF938C014D
:1031200067E00E946C18C82F68E0C8010E946C1804
:10313000D82F69E0C8010E946C184C2F50E060E065
:1031400070E0BA0155274427480F511D611D711DBC
:103150008D2F90E0982F88278A019B01080F191F57
:10316000211D311DC901B8010E94942B20E034E2D9
:1031700044E752E40E944B2C0E94652BDF91CF91D3
:103180001F910F9108950F931F93CF93DF93EC013D
:10319000062F142FE881F981008CF18DE02D09951F
:1031A000802F80680E94E917812F0E94E917E8812B
:1031B000F981028CF38DE02DCE01DF91CF911F912B
:1031C0000F910994CF92DF92EF92FF921F93CF93CA
:1031D000DF93EC016A017B011091F304143039F4A0
:1031E000E881F9810488F589E02D63E00995C7013C
:1031F000B6010E94942B20E034E244E752E40E949E
:10320000F32A0E94652B6B017C01A70166277727B3
:1032100067E0CE010E94C31877276F2D5E2D4D2DDC
:1032200068E0CE010E94C3184C2D69E0CE010E94D7
:10323000C318133041F4E881F9810488F589E02D41
:1032400062E0CE010995E881F9810488F589E02DD5
:10325000612FCE01DF91CF911F91FF90EF90DF9012
:10326000CF9009941F93CF93DF932091F3042617F7
:1032700009F45DC0162FEC016230E9F168F46623B1
:1032800009F440C0613009F052C061E00E946C183E
:10329000837E482F44603BC06330B9F0643009F04E
:1032A00046C061E00E946C18837E482F4C6061E04C
:1032B000CE010E94C3188885882369F1E881F981CD
:1032C0000688F789E02D61E013C061E00E946C1868
:1032D000837E482F406161E0CE010E94C31888853B
:1032E0008823C9F0E881F9810688F789E02D60E03C
:1032F000CE01099510C061E00E946C18837E482FB2
:10330000486005C061E00E946C18482F437E61E070
:10331000CE010E94C3188091F304811106C067E2B8
:10332000CE010E946C1887FFF6CF1093F304DF9153
:10333000CF911F910895CF93DF93EC01603208F095
:103340006FE16F838885882311F066956F8361E153
:10335000CE010E946C18807E9F81482F492B61E12D
:10336000CE01DF91CF910C94C318CF92DF92EF92F0
:10337000FF920F931F93CF93DF93EC01F62ED42E81
:10338000C52E122FE881F9810488F589E02D61E0CE
:10339000099567E2CE010E946C1887FFFACF40E0E2
:1033A00065E2CE010E94C3181E3308F01DE3E11050
:1033B00004C0002321F000E403C000E801C000E0E5
:1033C000E881F981008CF18DE02DCE01099580E82E
:1033D0000E94E91783E0810F0E94E9178F2D0E9458
:1033E000E9178D810E94E917802F0E94E9170D2DA2
:1033F000ED2CFC2C8E2D801B811730F4F701819170
:103400007F010E94E917F6CFE881F981028CF38DE4
:10341000E02DCE010995E881F9810488F589E02D38
:1034200064E0CE0109950E9408296B017C018B8123
:103430000E94572A892B81F0E881F9810488F58957
:10344000E02D61E0CE01DF91CF911F910F91FF90B0
:10345000EF90DF90CF9009940E940829DC01CB0106
:103460008C199D09AE09BF09883E9340A105B1059D
:10347000F0F2E2CFCF93DF93EC011092F2041092BE
:10348000F1041092F0041092EF041092EE041092E6
:10349000ED041092EC041092EB0468E20E946C18A8
:1034A00082FF0AC06DE3CE010E946C18482F446071
:1034B0006DE3CE010E94C31840E465E2CE010E9494
:1034C000C318E881F9810488F589E02D63E0CE0115
:1034D000DF91CF910994CF92DF92EF92FF920F93F9
:1034E0001F93CF93DF93EC018B01E881F98104886E
:1034F000F589E02D61E0099501151105F1F0E881EC
:10350000F981008CF18DE02DCE0109958EEB0E94A2
:10351000E9177801680180E1C80ED11CF70181919B
:103520007F010E94E917EC14FD04C1F7E881F981DD
:10353000028CF38DE02DCE0109956DE3CE010E9442
:103540006C188E7F41E0012B09F440E0482B6DE3BD
:10355000CE01DF91CF911F910F91FF90EF90DF90FF
:10356000CF900C94C3188F929F92AF92BF92CF923C
:10357000DF92EF92FF920F931F93CF93DF93CDB71C
:10358000DEB7AE970FB6F894DEBF0FBECDBF8C018D
:10359000E42EDC0113968C918A3031F08B3031F0BF
:1035A000823029F08FEF03C080E001C081E0F80194
:1035B00084838EE2AE014F5F5F4F6A01DA01E82F2C
:1035C0001D92EA95E9F791E0998334E03A8342E06D
:1035D0004B8393E09D834E833F8340E4488735E0EF
:1035E00039879A8796E09B8793E39C8737E03D87EE
:1035F00098E09F8799E0998B99E19B8B92E49C8B53
:1036000055E25D8B4E8B46E24F8B388F38E2398F17
:1036100030E13A8F39E23B8F3CED3C8F8D8F88E86B
:103620008E8F8FE28F8F8DE288A380E389A337E3AB
:103630003BA330E93CA338E33DA39EA39CE39FA3B7
:103640009FE898A79DE399A792E19AA79FE69BA779
:103650008CA78FEF8DA76F3131F06B3231F066356B
:1036600031F084EE05C08EE403C08CE601C089ED24
:103670008E876F3141F06B3221F0663521F480E0A6
:1036800003C080E401C080EC888B2AA361E0D801EC
:1036900012968C910E94282A61E0F80182810E9492
:1036A000EC290E94D4200E9408294B015C014AEABF
:1036B0006FE2C8010E94C3186FE2C8010E946C1833
:1036C0008A3A61F00E940829DC01CB018819990926
:1036D000AA09BB09C297A105B10548F30E940829B0
:1036E0004B015C0145E56FE2C8010E94C3186FE21F
:1036F000C8010E946C18853561F00E940829DC0120
:10370000CB0188199909AA09BB09C297A105B1057E
:1037100048F3F12CF601EF0DF11DEF0DF11D608165
:103720006F3F31F04181C8010E94C318F394F2CF7A
:1037300060E070E0C8010E946B1AD801ED91FC9125
:1037400011970084F185E02D18966C91C8010995B8
:10375000D801ED91FC910488F589E02D61E0C80164
:1037600009950E9408294B015C0167E2C8010E948B
:103770006C1887FD0CC00E940829DC01CB01881958
:103780009909AA09BB09C297A105B10570F30E9466
:103790000829DC01CB0188199909AA09BB09C2973C
:1037A000A105B10598F41092EA0443E050E06DE8F9
:1037B00077E1F80184810E94C0271093E904009307
:1037C000E804D8011596EC9281E001C080E0AE9645
:1037D0000FB6F894DEBF0FBECDBFDF91CF911F9122
:1037E0000F91FF90EF90DF90CF90BF90AF909F90A0
:1037F0008F900895CF93DF93EC0161110DC064E2C7
:10380000CE010E946C1890E0919581959109959553
:103810008795DF91CF91089541E063E20E94C3183C
:1038200063E2CE010E946C1881FFFACFE8CFCF93FC
:10383000DF932091F3042330A9F42091EF042111A8
:1038400011C0EC0160E00E94FA1B863A9F4F54F4CD
:10385000E881F9810488F589E02D61E0CE010995C0
:1038600081E001C080E0DF91CF910895EF92FF9257
:103870001F93CF93DF93EC018091F304833001F524
:1038800068E2CE010E946C1882FD28C019C08091A8
:10389000F2048D3330F4E091F204F0E0EC50FB4F91
:1038A0001082E881F981028CF38DE02DCE0109951B
:1038B000E881F9810488F589E02D63E0CE0109955E
:1038C00060E0CE010E94FA1B9093EC048093EB041D
:1038D000DF91CF911F91FF90EF900895E881F981DA
:1038E0000488F589E02D61E0CE010995E881F98130
:1038F000008CF18DE02DCE01099580E00E94E91742
:1039000080E00E94E9178093EF048091EF048334F4
:10391000D0F48091EF048093EF0480E00E94E917D7
:103920008093F0048E81811109C08091F0049D8103
:10393000981721F08091F0048F3F39F48091EF04C3
:10394000833018F017C082E4E6CF1092EF04E881CC
:10395000F981028CF38DE02DCE010995E881F98182
:103960000288F389E02DCE01DF91CF911F91FF9066
:10397000EF9009948091EF0483508093F20480E0EB
:103980000E94E9178093F10480E00E94E917982FC4
:1039900090789093ED04982F90749093EE04E881C2
:1039A000F9810684F785E02D682FCE01099510E096
:1039B0008091F204181708F06ACFE12EF12C80E014
:1039C0000E94E917F701EC50FB4F80831F5FF0CF97
:1039D0008F929F92AF92BF92CF92DF92EF92FF921F
:1039E0000F931F93CF93DF93EC01162F6A01F22EF2
:1039F0006DE30E946C18482F44606DE3CE010E9475
:103A0000C3180E9408294B015C01CE010E94171CBB
:103A1000811115C00E940829DC01CB018819990980
:103A2000AA09BB09883E9340A105B10540F4E8818D
:103A3000F9810480F581E02DCE010995E6CFE8817A
:103A4000F9810088F189E02DE12C2F2DA601612F4D
:103A5000CE010995DF91CF911F910F91FF90EF90CB
:103A6000DF90CF90BF90AF909F908F9008954F922E
:103A70005F926F927F92AF92BF92CF92DF92EF925E
:103A8000FF920F931F93CF93DF93EC015B01F42E12
:103A90001092EE041091F104C090EB04D090EC046D
:103AA0006DE30E946C18482F44606DE3CE010E94C4
:103AB000C3180E9408292B013C01CE010E94171C4B
:103AC000811115C00E940829DC01CB0184199509D8
:103AD000A609B709883E9340A105B10540F4E881E5
:103AE000F9810480F581E02DCE010995E6CF109390
:103AF000F104E881F9810088F189E02DEE24E39456
:103B000000E02F2DA501612FCE010995D092EC0484
:103B1000C092EB04DF91CF911F910F91FF90EF9036
:103B2000DF90CF90BF90AF907F906F905F904F905D
:103B300008951F93CF93DF93EC01162F611102C0FC
:103B400045E501C04DE56AE5CE010E94C31811119B
:103B500002C040E701C04CE76CE5CE01DF91CF9198
:103B60001F910C94C318CF93DF93EC016887611108
:103B700002C04AE101C04FE063E1CE010E94C318D8
:103B80008885882341F061E1CE010E946C188F7115
:103B9000482F406602C04F81406861E1CE01DF914D
:103BA000CF910C94C318FC0166830895CF93DF93E3
:103BB000EC01CB014423B1F00E946F21811112C0AE
:103BC000E881F9810680F781E02D4FE06EE672E032
:103BD000CE01099561EA79E082E395E0DF91CF912A
:103BE0000C94C425E881F9810680F781E02D46E038
:103BF0006EE772E0CE01DF91CF910994EF92FF92D0
:103C00000F931F93CF93DF938C01EC01C60FD11D4F
:103C1000C017D107D9F07801F801608162956F7003
:103C200060636A330CF0695F82E395E00E94B92516
:103C30000F5F1F4FF70160816F7060636A330CF094
:103C4000695F82E395E00E94B925E2CFDF91CF91D1
:103C50001F910F91FF90EF9008952F923F924F92F6
:103C60005F926F927F928F929F92AF92BF92CF920C
:103C7000DF92EF92FF920F931F93CF93DF93CDB715
:103C8000DEB765970FB6F894DEBF0FBECDBF5C01FF
:103C90006D8B7A01C22E0C8B40E050E0BA01C70157
:103CA0000E94FA2107E02AE932E040E050E0BA0140
:103CB000C7010E94C8212AE349E050E060E070E0BB
:103CC000C7010E94A4210E9408291B012C010AE0BF
:103CD00010E0612C712CD501ED91FC910480F581EF
:103CE000E02DC5010995882301F18091F104BD897A
:103CF0008B131BC06091F204698B643020F08091BB
:103D0000F404863409F161E08C890E94EC2961E0B9
:103D10008C890E94282A61E070E080E090E00E9497
:103D2000392960E08C890E94282A0E940829DC0138
:103D3000CB0182199309A409B509893B9B40A105D0
:103D4000B10548F280E030C18091F5048C34D9F699
:103D50008091F6048835B9F68091F7048A3309F02A
:103D6000ACC02989273008F4A8C084E090E0812CF9
:103D7000912C482FDD24DA94D80EFC01EC50FB4F37
:103D80002081203308F408C120812A3308F004C1BF
:103D90005081AAE0A89D9001A99D300D11244901F0
:103DA000B0E38B1A9108850E911C0196883091051D
:103DB00001F7D42ECC20C1F06BE579E082E395E0E9
:103DC0000E9493254AE050E0698982E395E00E94D1
:103DD0003E2666E579E082E395E00E9493256989B5
:103DE00084EF94E00E94FE1DE1E0ED0DF0E0EC5068
:103DF000FB4F80818A3309F0A5CF0E9408291B015F
:103E00002C016814790439F0C301019788159905CC
:103E100009F053C028C0D394D3946FEF661A760A82
:103E20008989D81600F5ED2DF0E0EC50FB4F20818C
:103E3000D8011196BB8BAA8BA80160E070E0C70186
:103E40000E94A4218A899B899F77892B41F48A89C2
:103E50009B89AC0160E070E0C7010E94FA21D39415
:103E60000A891B89DDCF9F928F92A2EAB2E0BF93AD
:103E7000AF9381E090E08C0F9D1F9F938F930E94E2
:103E8000712FD82E0F900F900F900F900F900F90D2
:103E9000CC2039F0BE016F5F7F4F82E395E00E9436
:103EA000D625D501ED91FC910680F781E02D4D2DB1
:103EB000BE016F5F7F4FC50109958091F7048F3375
:103EC00009F021CFB989B43079F441E0B701C501D7
:103ED0000E94D61DCC2009F416CF68E479E082E375
:103EE00095E00E94C4250FCF2989273009F00BCF18
:103EF0008091F804853409F006CF8091F9048F345D
:103F000009F001CF8091FA04863409F0FCCE480113
:103F10006AE0861A910887EF88168FEF9806A0F05E
:103F2000CC2031F065E379E082E395E00E94C4257E
:103F3000D501ED91FC910680F781E02D4FE06CEA10
:103F400072E0C5010995FECE40E0B701C5010E94AF
:103F5000D61DCC2031F06EE279E082E395E00E943C
:103F6000C425292D47E050E060E070E0C7010E94C1
:103F7000A42126EF200F48E050E060E070E0C70188
:103F80000E94A4212AE349E050E060E070E0C7010C
:103F90000E94A42181E008C020812A3309F005CFC6
:103FA000443009F007CFCECE65960FB6F894DEBF49
:103FB0000FBECDBFDF91CF911F910F91FF90EF907A
:103FC000DF90CF90BF90AF909F908F907F906F9039
:103FD0005F904F903F902F900895CF92DF92FF9285
:103FE0000F931F93CF93DF93EC01162F6A01F22EEC
:103FF00041E0B6010E94D61DFF20D9F06FE879E0BC
:1040000082E395E00E94C4256AE779E082E395E0C7
:104010000E949325CE010E948B18AB01BC01405C2D
:104020005D4B604F7F4F2AE030E082E395E00E94D5
:104030006F26CE010E948B18AB01BC01405C5D4B2A
:10404000604F7F4FCE010E94E2182F2DA601612FF5
:10405000CE010E942D1E182FFF20A9F063E679E003
:1040600082E395E00E949325CE010E948B18AB015C
:10407000BC01405452446F4071092AE030E082E3B1
:1040800095E00E946F26CE010E948B18AB01BC0107
:10409000405452446F407109CE010E94E218812FB2
:1040A000DF91CF911F910F91FF90DF90CF900895F6
:1040B000C82F882331F064E279E082E395E00E9422
:1040C000932598E088E10FB6F894A8958093600056
:1040D0000FBE90936000C11101C0FFCF62E279E092
:1040E00082E395E00E949325F6CF0F93CF93309112
:1040F000F204343008F455C03091F404363409F039
:1041000050C03091F5043C3409F04BC03091F604B6
:10411000383509F046C03091F7043F3309F041C00B
:10412000022FC42FAB016091F1042091F2042730DB
:10413000C1F42091F8042534A1F42091F9042F341E
:1041400081F42091FA04263461F4DC01ED91FC91B4
:104150000190F081E02D00E026E04EE752E0099565
:1041600020C02C2F0E94ED1F882359F0CC2331F062
:1041700068EB79E082E395E00E9493258C2F0E9402
:104180005820CC2371F06CEB72E082E395E00E9442
:10419000B72563EB79E082E395E0CF910F910C9422
:1041A000C425CF910F910895CF93CFB7F894809104
:1041B0003105811127C0EDE1FAE08491EDEFF9E0DE
:1041C0009491E82FF0E0EE0FFF1FE35BF54FA59110
:1041D000B491EC91E92321F461E084E00E94282A63
:1041E00061E084E00E94EC298CB580618CBD8CB5C7
:1041F00080648CBD61E087E00E94EC2961E085E08D
:104200000E94EC29809131058F5F80933105CFBFEB
:10421000CF910895FC016083528341830895F894FF
:1042200060E0FC0180810C94282A61E0FC0180811F
:104230000E94282A789408950F931F93CF93DF93B9
:104240008C010E940F218FE90E94E91780E00E94F3
:10425000E917C82FD0E0DC2FCC2780E00E94E917B7
:10426000C82BC8010E941521CE01DF91CF911F916B
:104270000F9108951F93CF93DF93EC010E940F21BC
:1042800085E00E94E91780E00E94E917182FCE010F
:104290000E941521812FDF91CF911F9108950E94D7
:1042A0003A21817008951F93CF93DF93EC01162F6D
:1042B000442339F040E066E00E945321CE010E9481
:1042C0001521CE010E944F218111FBCFCE010E940A
:1042D0000F21812FDF91CF911F910C94E917CF937C
:1042E000DF93EC0161E088810E94EC29CE010E94FD
:1042F00015218CB5837F8CBD8CB58F7D8CBD8CB525
:104300008C7F8CBD8DB581608DBD0E94D42089814C
:104310009A81892B51F0CE010E941C2129813A817A
:104320008217930711F080E00CC041E061E0CE01FC
:104330000E94532180E00E94E917CE010E941521BE
:1043400081E0DF91CF910895EF92FF920F931F9339
:10435000CF93DF93EC01042FF52EE62E122F41E0D0
:1043600062E00E9453218E2D0E94E9178F2D0E943A
:10437000E917802F0E94E917812F0E94E917CE01CB
:10438000DF91CF911F910F91FF90EF900C94152129
:10439000CF92DF92EF92FF920F931F93CF93DF9311
:1043A0007C01EA01C62ED22E132F41E062E00E946A
:1043B00053218C2D0E94E9178D2F0E94E9178C2F15
:1043C0000E94E917CD2DD12FCE01800F911D8C01B8
:1043D000C017D10721F089910E94E917F9CFC701D1
:1043E000DF91CF911F910F91FF90EF90DF90CF90D1
:1043F0000C941521FF920F931F93CF93DF93EC0141
:10440000142F052FF62E41E062E50E9453218F2DD7
:104410000E94E917802F0E94E917812F0E94E91757
:10442000CE01DF91CF911F910F91FF900C94152138
:104430000F931F93CF93DF938C01FC0171836083F3
:10444000EB01CC0FDD1FC60FD71FD383C28324839C
:10445000458350E0FA01E75EF54FE491F0E0EE0F9E
:10446000FF1FED5BF54F85919491F8019687858745
:10447000FA01E750F64F4491F8014787CE010E94B8
:10448000352DF80190878783009749F0AE0160E0F1
:1044900070E0DF91CF911F910F910C94232FDF914A
:1044A000CF911F910F910895CF92DF92EF92FF92DB
:1044B0000F931F93CF93DF93CDB7DEB729970FB636
:1044C000F894DEBF0FBECDBF8C01DC0117968D9135
:1044D0009C911897892B09F49DC00E941429F8011A
:1044E000C184D284E384F484DC01CB018C199D095E
:1044F000AE09BF09C297A105B10578F3F89482818E
:1045000093819A8389830780F085E02D7F01BFEF37
:10451000EB1AFB0A80818987F80194810584F6856E
:10452000E02DD8011F968C9191FF30C09081982B7F
:1045300098879081809589238F838F818E8388E0EF
:104540008D8358856F8149853D812E8189819A812E
:10455000D701508347FD252F3A952083262F39F028
:10456000441F00C000006083000000C0F2CF38E0AC
:104570004D9160830000019761F7D8011E96FC936E
:10458000EE931D9749873D832E833AC09081982BE7
:1045900098879081809589238F838F818C8388E091
:1045A0008B8358856F8149853B812C8189819A81D4
:1045B000D701508347FD252F00C000C0208300C0D5
:1045C00000C000C000C000C060830000262F3A95E4
:1045D00041F0441F000000C000C000C000C000C087
:1045E000E8CF38E04D9100C0608300C0019709F723
:1045F000D8011E96FC93EE931D9749873B832C832D
:104600009A83898378940E941429F80161877287BC
:104610008387948729960FB6F894DEBF0FBECDBF6F
:10462000DF91CF911F910F91FF90EF90DF90CF908E
:1046300008958F929F92AF92BF92CF92DF92EF92A6
:10464000FF92CF93DF93DC018D919C9111976817B6
:10465000790790F54A01AA24BB24C82DC32ED42E75
:10466000E52EFF248C2DD22F16969C911697992318
:1046700061F0899E40011124C92D9C9D6001112487
:104680008D2D929F90011124D32FFB01EE0FFF1F60
:104690006E0F7F1F1796ED91FC911897E60FF71F8D
:1046A00014969C91DF01129690FF03C08083C18312
:1046B00002C0C0838183DC93DF91CF91FF90EF90A4
:1046C000DF90CF90BF90AF909F908F900895FC01A6
:1046D000878190850895FC01918D228D892F90E02E
:1046E000805C9F4F821B91098F7399270895FC016D
:1046F000918D828D981731F0828DE80FF11D858D97
:1047000090E008958FEF9FEF0895FC01918D828DC9
:10471000981761F0828DDF01A80FB11D5D968C9115
:10472000928D9F5F9F73928F90E008958FEF9FEF20
:104730000895FC01538D448D252F30E0842F90E0A7
:10474000821B930B541710F0CF960895019708958C
:104750008DE195E2892B41F080E090E0892B21F0FA
:104760000E941D2581110DC080E090E0892B71F021
:1047700080E090E0892B51F00E940000811104C07C
:1047800008950E940000F0CF0C9400000895FC01F1
:10479000848DDF01A80FB11DA35ABF4F2C91848DCA
:1047A00090E001968F739927848FA689B7892C93FF
:1047B000A089B1898C91837080648C93938D848D52
:1047C000981306C00288F389E02D80818F7D808355
:1047D0000895EF92FF920F931F93CF93DF93EC0115
:1047E00081E0888F9B8D8C8D981305C0E889F989AD
:1047F000808185FD26C0F62E0B8D10E00F5F1F4FC8
:104800000F731127E02E8C8DE8120CC00FB607FC39
:10481000FACFE889F989808185FFF5CFCE010E9422
:10482000C723F1CF8B8DFE01E80FF11DE35AFF4F37
:10483000F0829FB7F8940B8FEA89FB8980818062B0
:104840000AC09FB7F894EE89FF896083E889F989E7
:1048500080818370806480839FBF81E090E0DF91DE
:10486000CF911F910F91FF90EF900895CF93DF9319
:10487000EC01888D8823C9F0EA89FB89808185FD58
:1048800005C0A889B9898C9186FD0FC00FB607FCB9
:10489000F5CF808185FFF2CFA889B9898C9185FFFA
:1048A000EDCFCE010E94C723E7CFDF91CF910895CE
:1048B000CF92DF92EF92FF921F93CF93DF93EC01A1
:1048C0006A017B01122FE889F98982E08083411512
:1048D000514E61057105B1F060E079E08DE390E043
:1048E000A70196010E94D12CDA01C9010197A10903
:1048F000B109B695A795979587959C01211580E1FB
:104900003807A8F0E889F989108260E874E88EE138
:1049100090E0A70196010E94D12CDA01C90101970C
:10492000A109B109B695A795979587959C01EC8546
:10493000FD853083EE85FF852083188EEC89FD8907
:104940001083EA89FB89808180618083EA89FB8901
:10495000808188608083EA89FB8980818068808388
:10496000EA89FB8980818F7D8083DF91CF911F91C0
:10497000FF90EF90DF90CF9008951F920F920FB6A7
:104980000F9211240BB60F922F938F939F93EF9357
:10499000FF93E0914205F09143058081E091480545
:1049A000F091490582FD12C0908180914B058F5F87
:1049B0008F7320914C05821751F0E0914B05F0E088
:1049C000EE5CFA4F958F80934B0501C08081FF917B
:1049D000EF919F918F912F910F900BBE0F900FBE73
:1049E0000F901F9018951F920F920FB60F921124DF
:1049F0000BB60F922F933F934F935F936F937F93D9
:104A00008F939F93AF93BF93EF93FF9382E395E0D0
:104A10000E94C723FF91EF91BF91AF919F918F911A
:104A20007F916F915F914F913F912F910F900BBEAE
:104A30000F900FBE0F901F90189582E395E00E9493
:104A40006B2321E0892B09F420E0822F0895E2E313
:104A5000F5E01382128288EE93E0A0E0B0E0848358
:104A60009583A683B78389EE92E09183808385EC5A
:104A700090E09587848784EC90E09787868780EC28
:104A800090E0918B808B81EC90E0938B828B82EC19
:104A900090E0958B848B86EC90E0978B868B118EC3
:104AA000128E138E148E0895CF92DF92EF92FF92A2
:104AB0000F931F93CF93DF936C017A018B01C0E0BA
:104AC000D0E0CE15DF0581F0D8016D918D01D601C2
:104AD000ED91FC910190F081E02DC6010995892BA3
:104AE00011F02196EECF7E01C701DF91CF911F918A
:104AF0000F91FF90EF90DF90CF90089561157105B1
:104B000079F0FB0101900020E9F73197AF01461BD6
:104B1000570BDC01ED91FC910280F381E02D0994AB
:104B200080E090E00895EF92FF920F931F93CF9350
:104B3000DF938C017B01C0E0D0E0F701EC0FFD1F9B
:104B40006491662361F0D801ED91FC910190F081B0
:104B5000E02DC8010995892B11F02196EECFCE01E9
:104B6000DF91CF911F910F91FF90EF9008950C94DA
:104B70007E25DC01ED91FC910190F081E02D0994FE
:104B800067EF72E00C947E250F931F93CF93DF9312
:104B9000EC010E9493258C01CE010E94C025800F5C
:104BA000911FDF91CF911F910F9108950F931F9344
:104BB000CF93DF93EC010E947E258C01CE010E94F1
:104BC000C025800F911FDF91CF911F910F91089504
:104BD0008F929F92AF92BF92EF92FF920F931F938B
:104BE000CF93DF93CDB7DEB7A1970FB6F894DEBFB2
:104BF0000FBECDBF7C01FA01CB0119A2223008F40F
:104C00002AE08E010F5D1F4F822E912CA12CB12C1A
:104C1000BF01A50194010E94D12CF901CA010150E4
:104C200011096A3014F4605D01C0695CD8016C93AD
:104C3000232B242B252B61F7B801C7010E947E2569
:104C4000A1960FB6F894DEBF0FBECDBFDF91CF9116
:104C50001F910F91FF90EF90BF90AF909F908F901A
:104C600008952115310541F4DC01ED91FC9101908D
:104C7000F081E02D642F09940C94E8259A01462FC9
:104C800050E060E070E00C9431260F931F93CF93B7
:104C9000DF93EC010E943E268C01CE010E94C025CC
:104CA000800F911FDF91CF911F910F9108959A016D
:104CB000AB0160E070E00C9431260F931F93CF930B
:104CC000DF93EC010E9457268C01CE010E94C02583
:104CD000800F911FDF91CF911F910F9108950F9336
:104CE0001F93CF93DF93EC010E9431268C01CE01FC
:104CF0000E94C025800F911FDF91CF911F910F91CE
:104D00000895CF92DF92EF92FF920F931F93CF936C
:104D1000DF932115310581F4DC01ED91FC910190C7
:104D2000F081E02D642FDF91CF911F910F91FF90C3
:104D3000EF90DF90CF9009942A30310501F577FF8D
:104D40001DC06A017B01EC016DE20E94B9258C0156
:104D500044275527BA014C195D096E097F092AE0DD
:104D6000CE010E94E825800F911FDF91CF911F9106
:104D70000F91FF90EF90DF90CF9008952AE0DF91A0
:104D8000CF911F910F91FF90EF90DF90CF900C94F7
:104D9000E8259A01AB01770F660B770B0C948126FF
:104DA0000F931F93CF93DF93EC010E94C9268C01D0
:104DB000CE010E94C025800F911FDF91CF911F91DE
:104DC0000F9108957F928F929F92AF92BF92CF9250
:104DD000DF92EF92FF920F931F93CF93DF938C019B
:104DE0006A017B01722E9A01AB01C701B6010E94D4
:104DF000B82C882319F06AEF72E027C046015701EA
:104E0000E894B7F82FEF3FEF4FE75FE7C501B40134
:104E10000E94B82C81110DC02FEF3FEF4FE75FE7E5
:104E2000C501B4010E94EE2A18161CF46EEF72E060
:104E30000CC02FEF3FEF4FE75FE4C701B6010E94C0
:104E4000462C181694F462E073E0C801DF91CF910C
:104E50001F910F91FF90EF90DF90CF90BF90AF9098
:104E60009F908F907F900C947E252FEF3FEF4FE720
:104E70005FECC701B6010E94EE2A87FDE4CF20E077
:104E800030E0A901C701B6010E94EE2A87FF0AC0DF
:104E90006DE2C8010E94B925EC01F7FAF094F7F829
:104EA000F09402C0C0E0D0E0B12C60E070E080E09F
:104EB0009FE37B1441F020E030E040E251E40E94A7
:104EC000F32AB394F6CFA70196010E94822A6B01C0
:104ED0007C010E94652B4B015C012AE0AB01BC0107
:104EE000C8010E94E825C80FD91F7720B9F1C50174
:104EF000B4010E94942B9B01AC01C701B6010E9432
:104F0000812A6B017C016EE2C8010E94B925C80F9D
:104F1000D91F20E030E040E251E4C701B6010E9411
:104F20004B2C4B015C010E94652B6B017C014AE01C
:104F300050E0C8010E945726C80FD91FB60180E073
:104F400090E00E94942B9B01AC01C501B4010E942A
:104F5000812A6B017C017A947110DBCFCE01DF9145
:104F6000CF911F910F91FF90EF90DF90CF90BF9066
:104F7000AF909F908F907F9008950C94E2260895B3
:104F8000833060F5E82FF0E0EE0FFF1FEF57FE4F84
:104F900071836083813051F08230A1F0809169008B
:104FA0008C7F482B40936900E89A089580916900AE
:104FB000837F440F551F440F551F482B40936900B2
:104FC000E99A0895809169008F7C94E0440F551F01
:104FD0009A95E1F7482B40936900EA9A08951F9249
:104FE0000F920FB60F9211240BB60F922F933F938F
:104FF0004F935F936F937F938F939F93AF93BF93E1
:10500000EF93FF93E0918101F09182010995FF9167
:10501000EF91BF91AF919F918F917F916F915F9130
:105020004F913F912F910F900BBE0F900FBE0F909D
:105030001F9018951F920F920FB60F9211240BB666
:105040000F922F933F934F935F936F937F938F9321
:105050009F93AF93BF93EF93FF93E0918301F09100
:1050600084010995FF91EF91BF91AF919F918F912D
:105070007F916F915F914F913F912F910F900BBE58
:105080000F900FBE0F901F9018951F920F920FB6A2
:105090000F9211240BB60F922F933F934F935F9370
:1050A0006F937F938F939F93AF93BF93EF93FF93F0
:1050B000E0918501F09186010995FF91EF91BF91F3
:1050C000AF919F918F917F916F915F914F913F91A0
:1050D0002F910F900BBE0F900FBE0F901F90189541
:1050E000CF92DF92EF92FF926115710581059105D4
:1050F00049F06B017C010E94A12EA70196010E943C
:10510000F32C03C060E070E0CB01FF90EF90DF90E4
:10511000CF900895CF92DF92EF92FF920F931F935B
:10512000621773078407950784F489019A016B015C
:105130007C01C901B8016C197D098E099F090E9483
:1051400070286C0D7D1D8E1D9F1D1F910F91FF906E
:10515000EF90DF90CF90089508950E9475290E94E6
:10516000AC280E94B90EC8EAD3E20E94A31220978D
:10517000E1F30E94A823F9CF0C94352D1F920F92D2
:105180000FB60F9211242F933F938F939F93AF935A
:10519000BF938091D0059091D105A091D205B09197
:1051A000D3053091CF0523E0230F2D3720F401964E
:1051B000A11DB11D05C026E8230F0296A11DB11D3A
:1051C0002093CF058093D0059093D105A093D2056D
:1051D000B093D3058091D4059091D505A091D605C3
:1051E000B091D7050196A11DB11D8093D405909370
:1051F000D505A093D605B093D705BF91AF919F91E8
:105200008F913F912F910F900FBE0F901F90189587
:105210002FB7F8946091D0057091D1058091D20597
:105220009091D3052FBF08953FB7F8948091D4058E
:105230009091D505A091D605B091D70526B5A89B2C
:1052400005C02F3F19F00196A11DB11D3FBFBA2F18
:10525000A92F982F8827820F911DA11DB11DBC0178
:10526000CD0142E0660F771F881F991F4A95D1F73D
:1052700008958F929F92AF92BF92CF92DF92EF925A
:10528000FF926B017C010E9414294B015C01C11447
:10529000D104E104F10401F10E94802A0E94142942
:1052A000DC01CB0188199909AA09BB09883E934002
:1052B000A105B10560F321E0C21AD108E108F108A7
:1052C00088EE880E83E0981EA11CB11CC114D10485
:1052D000E104F10419F7DBCFFF90EF90DF90CF905E
:1052E000BF90AF909F908F900895789484B582601E
:1052F00084BD84B5816084BD85B5826085BD85B57A
:10530000816085BDEEE6F0E0808181608083E1E828
:10531000F0E0108280818260808380818160808360
:10532000E0E8F0E0808181608083E1EBF0E0808163
:1053300084608083E0EBF0E0808181608083E1E93C
:10534000F0E0808182608083808181608083E0E9F9
:10535000F0E0808181608083EAE7F0E08081846012
:10536000808380818260808380818160808380816E
:10537000806880831092C100089590E0FC0131970D
:10538000EA30F10540F5EA5BFF4F0C94122D809155
:1053900080008F7703C0809180008F7D8093800094
:1053A000089584B58F7702C084B58F7D84BD08953C
:1053B0008091B0008F7703C08091B0008F7D809383
:1053C000B0000895809190008F7703C08091900085
:1053D0008F7D809390000895CF93DF9390E0FC0140
:1053E000E750F64F2491FC01E75EF54F8491882346
:1053F00061F190E0880F991FFC01E35BF54FC591C7
:10540000D491FC01ED5BF54FA591B491611109C0F8
:105410009FB7F8948881209582238883EC912E236E
:105420000BC0623061F49FB7F8948881322F3095B9
:1054300083238883EC912E2B2C939FBF06C08FB7BC
:10544000F894E8812E2B28838FBFDF91CF910895A8
:105450001F93CF93DF93282F30E0F901E752F64FE7
:105460008491F901E750F64FD491F901E75EF54FC9
:10547000C491CC23C1F0162F81110E94BD29EC2FBD
:10548000F0E0EE0FFF1FED5BF54FA591B4919FB7D4
:10549000F894111104C08C91D095D82302C0EC91DE
:1054A000DE2BDC939FBFDF91CF911F910895CF93A7
:1054B000DF93282F30E0F901E752F64F8491F9018C
:1054C000E750F64FD491F901E75EF54FC491CC2334
:1054D00091F081110E94BD29EC2FF0E0EE0FFF1F2B
:1054E000E75CF54FA591B491EC91ED2381E090E05C
:1054F00021F480E002C080E090E0DF91CF91089538
:1055000008955058BB27AA270E94992A0C940C2C66
:105510000E94FE2B38F00E94052C20F039F49F3FAA
:1055200019F426F40C94FB2B0EF4E095E7FB0C9495
:10553000F52BE92F0E941D2C58F3BA176207730749
:105540008407950720F079F4A6F50C943F2C0EF40F
:10555000E0950B2EBA2FA02D0B01B90190010C0183
:10556000CA01A0011124FF27591B99F0593F50F49B
:10557000503E68F11A16F040A22F232F342F4427F3
:10558000585FF3CF469537952795A795F0405395EB
:10559000C9F77EF41F16BA0B620B730B840BBAF0BB
:1055A0009150A1F0FF0FBB1F661F771F881FC2F726
:1055B0000EC0BA0F621F731F841F48F4879577953A
:1055C0006795B795F7959E3F08F0B0CF9395880FF4
:1055D00008F09927EE0F9795879508950E94D12B93
:1055E00008F481E008950E94072B0C940C2C0E9473
:1055F000052C58F00E94FE2B40F029F45F3F29F063
:105600000C94F52B51110C94402C0C94FB2B0E9404
:105610001D2C68F39923B1F3552391F3951B550B7A
:10562000BB27AA2762177307840738F09F5F5F4F75
:10563000220F331F441FAA1FA9F335D00E2E3AF0B4
:10564000E0E832D091505040E695001CCAF72BD0CC
:10565000FE2F29D0660F771F881FBB1F261737071D
:105660004807AB07B0E809F0BB0B802DBF01FF274F
:1056700093585F4F3AF09E3F510578F00C94F52B0C
:105680000C94402C5F3FE4F3983ED4F386957795D5
:105690006795B795F7959F5FC9F7880F911D969508
:1056A000879597F90895E1E0660F771F881FBB1F64
:1056B000621773078407BA0720F0621B730B840B11
:1056C000BA0BEE1F88F7E09508950E94252C88F00C
:1056D0009F5798F0B92F9927B751B0F0E1F0660FB6
:1056E000771F881F991F1AF0BA95C9F714C0B130F7
:1056F00091F00E943F2CB1E008950C943F2C672F4D
:10570000782F8827B85F39F0B93FCCF38695779525
:105710006795B395D9F73EF490958095709561950E
:105720007F4F8F4F9F4F0895E89409C097FB3EF439
:1057300090958095709561957F4F8F4F9F4F9923DE
:10574000A9F0F92F96E9BB279395F695879577955C
:105750006795B795F111F8CFFAF4BB0F11F460FF1C
:105760001BC06F5F7F4F8F4F9F4F16C0882311F074
:1057700096E911C0772321F09EE8872F762F05C088
:10578000662371F096E8862F70E060E02AF09A9523
:10579000660F771F881FDAF7880F9695879597F918
:1057A0000895990F0008550FAA0BE0E8FEEF1616B2
:1057B0001706E807F907C0F012161306E407F50705
:1057C00098F0621B730B840B950B39F40A2661F079
:1057D000232B242B252B21F408950A2609F4A1401C
:1057E000A6958FEF811D811D089597F99F6780E829
:1057F00070E060E008959FEF80EC089500240A9423
:105800001616170618060906089500240A9412169B
:105810001306140605060895092E0394000C11F4CE
:10582000882352F0BB0F40F4BF2B11F460FF04C07B
:105830006F5F7F4F8F4F9F4F089557FD9058440FD4
:10584000551F59F05F3F71F04795880F97FB991FDF
:1058500061F09F3F79F0879508951216130614069C
:10586000551FF2CF4695F1DF08C016161706180629
:10587000991FF1CF86957105610508940895E89404
:10588000BB2766277727CB0197F908950E94D12B74
:1058900008F48FEF08950E945E2C0C940C2C0E944B
:1058A000FE2B38F00E94052C20F0952311F00C946B
:1058B000F52B0C94FB2B11240C94402C0E941D2CD6
:1058C00070F3959FC1F3950F50E0551F629FF00153
:1058D000729FBB27F00DB11D639FAA27F00DB11D6C
:1058E000AA1F649F6627B00DA11D661F829F2227F5
:1058F000B00DA11D621F739FB00DA11D621F839F7C
:10590000A00D611D221F749F3327A00D611D231F51
:10591000849F600D211D822F762F6A2F11249F579F
:1059200050409AF0F1F088234AF0EE0FFF1FBB1FA2
:10593000661F771F881F91505040A9F79E3F510561
:1059400080F00C94F52B0C94402C5F3FE4F3983ED0
:10595000D4F3869577956795B795F795E7959F5F0B
:10596000C1F7FE2B880F911D9695879597F908959D
:105970000E94D12B880B990B0895AA1BBB1B51E1E8
:1059800007C0AA1FBB1FA617B70710F0A61BB70BAF
:10599000881F991F5A95A9F780959095BC01CD0154
:1059A0000895A1E21A2EAA1BBB1BFD010DC0AA1F60
:1059B000BB1FEE1FFF1FA217B307E407F50720F078
:1059C000A21BB30BE40BF50B661F771F881F991FF3
:1059D0001A9469F760957095809590959B01AC013C
:1059E000BD01CF010895052E97FB1EF400940E947F
:1059F0000A2D57FD07D00E94D12C07FC03D04EF48E
:105A00000C940A2D50954095309521953F4F4F4F5E
:105A10005F4F089590958095709561957F4F8F4F5A
:105A20009F4F0895EE0FFF1F0024001C0BBE079030
:105A3000F691E02D0994A29FB001B39FC001A39FEE
:105A4000700D811D1124911DB29F700D811D1124B7
:105A5000911D08950E941B2DA59F900DB49F900D40
:105A6000A49F800D911D112408950F931F93CF9330
:105A7000DF938230910510F482E090E0E091DA0546
:105A8000F091DB0520E030E0A0E0B0E0309719F1C4
:105A9000408151810281138148175907C8F084174A
:105AA000950769F4109731F012960C93129713969C
:105AB0001C9327C00093DA051093DB0522C0211543
:105AC000310519F04217530718F49A01BD01EF018F
:105AD000DF01F801DBCF21153105F9F0281B390B67
