:100000000C9400050C949A270C94C1270C94280595
:100010000C9428050C9428050C9428050C942805AC
:100020000C9428050C9428050C9428050C9428059C
:100030000C9428050C9428050C9428050C9428058C
:100040000C9436280C9428050C947F240C94B1242D
:100050000C9428050C9428050C9428050C9428056C
:100060000C9428050C942805456E74657220276849
:100070002720666F722068656C7000206279746555
:1000800073202020000952414D3A200009202023EE
:100090005265736574733A20004D687A005261644A
:1000A000696F206672657175656E63793A20000923
:1000B000002020462F573A2000200057415350205F
:1000C000736C61766520532F573A20002020285307
:1000D0006C61766529002E2E2E2020204E6F6465DF
:1000E0002023000A576972656C657373204164644C
:1000F0007265737361626C6520537472696E6773A5
:10010000206F6620506978656C73202857415350E2
:1001100029206E6574776F726B004552524F523AC8
:10012000205477696E6B6C6520656E7465726564CA
:100130002064656661756C742063617365002A2AAA
:100140002A204E6F64652049442076616C756520D5
:100150006F7574206F662072616E67652E00207364
:100160006176656420746F20454550524F4D2E0ACC
:10017000504F574552204359434C45205448452041
:100180004E4F44452E004E6F6465204944202300A5
:100190002A2A2A53484946543A20696E7465726E79
:1001A000616C206572726F720021547820230021E7
:1001B000212023002A2A2A53484946543A204261E2
:1001C00064207265706F7274202D20002A2A2A47DD
:1001D000524F55503A2052203D206D6520213D2040
:1001E0004C002A2A2A47524F55503A204C203D2095
:1001F0006D6520213D2052002A2A2A47524F555032
:100200003A20496E76616C696420574153502073DF
:100210006C6176652067726F7570204964202D20AF
:100220000052782066726F6D205741535020736CD6
:100230006176652070726F6772616D6D696E67209F
:1002400067617465776179206E6F6465002A2A2A78
:10025000436F6D6D616E64206E6F7420666F756E96
:1002600064005D005B002A2A2A496E7465726E6123
:100270006C204572726F723A20436F6D6D616E64CF
:100280002068616E646C6572206973206D69737398
:10029000696E67005D005B000A0A506C65617365FA
:1002A00020706F776572206379636C652074686570
:1002B000206E6F6465206669727374210A003E20A7
:1002C0000073746F707065645D00207365636F6E9A
:1002D00064735D00206D696E757465732C20002059
:1002E000686F7572732C200020646179732C200074
:1002F00072756E6E696E6720666F7220005741538B
:1003000050206973205B00090920204374726C201F
:1003100050696E20203D200029003C696E76616C9A
:1003200069643E20280035202842475229003420A5
:1003300028425247290033202847425229003220C0
:1003400028475242290031202852424729003020B4
:1003500028524742290009092020436F6C6F7572AB
:10036000732063203D200029003C696E76616C6932
:10037000643E202800382028383030206B487A2905
:1003800000342028343030206B487A2900090920B5
:1003900020467265712020202066203D200009093A
:1003A00020204C656E67746820206C203D20000979
:1003B00043757272656E74204C4544207374726983
:1003C0007020706172616D65746572733A00092DF9
:1003D0002053746F70205741535000202073746F66
:1003E0007020286F722073290009092D2053746131
:1003F00072742F726573756D6520574153500020DC
:100400002072756E002D2D2D2D2D2D2D2D2D2D2D88
:100410002D2D2D2D2D2D2D2D2D2D2D2D2D2D2D2D0C
:100420002D2D2D2D2D2D2D2D2D2D2D2D2D2D2D2DFC
:100430002D2D2D2D2D2D2D2D2D2D2D0009092D206E
:100440005072696E7420746869732068656C7020DE
:1004500074657874002020680009092D20536176A6
:100460006520706172616D657465727320746F20B0
:10047000454550524F4D00202073617665000909B3
:100480002D20536F66747761726520726573657491
:1004900000202072657365740009092D2053686F70
:1004A0007720706572666F726D616E636520746926
:1004B0006D696E67206461746100202070657266EA
:1004C00000092D2053657420746865204E6F6465A3
:1004D00020496420746F206E2E206E20696E207B70
:1004E000322C20332C202E2E2E2C2032307D00203A
:1004F000206E6F64656964206E0009092020636FB7
:100500006E74726F6C7320746865204C4544207360
:10051000747269702E206E20696E207B332D392C09
:100520002031342D32317D2E00092D204368616E3B
:100530006765207468652064656661756C74206405
:1005400069676974616C206F757470757420706967
:100550006E20746861740020206C65644374726C52
:10056000206E0009090920202020352C20666F729A
:10057000204247520009090920202020342C2066FF
:100580006F72204252470009090920202020332C95
:1005900020666F722047425200090909202020205E
:1005A000322C20666F722047524200090909202030
:1005B0002020312C20666F72205242470009090921
:1005C00063203D20302C20666F722052474220630A
:1005D0006F6C6F7220776972696E67206F726465E5
:1005E00072202864656661756C7429000909092008
:1005F000202020342C20666F72203430306B487AF3
:100600002C20575332383131206472697665727309
:100610000009090966203D20382C20666F722038B9
:1006200030306B487A2C20575332383132204C45C9
:100630004473202864656661756C74290009090992
:100640002020202020202D204D61782031303020A6
:100650007265636F6D6D656E64656420666F722090
:100660004D6F7465696E6F000909096C203D202388
:1006700020747269636F6C6F72204C4544207069FE
:1006800078656C73202864656661756C74203D2004
:10069000332900092D20436F6E66696775726520E6
:1006A0006164647265737361626C65204C454420BB
:1006B00073747269703A0020206C6564206C2C663B
:1006C0002C63000A0A436F6E736F6C6520636F6D55
:1006D0006D616E6473206172653A20287370616386
:1006E00065732063616E207265706C616365206361
:1006F0006F6D6D61732900574153502073746F7093
:1007000070656400574153502072756E6E696E6754
:10071000006D73293A2000232074696D6573206C85
:1007200061746520283E2000757300095065722DA4
:1007300074696D657220757064617465206F76658B
:1007400072686561643A20002D00290009092020A3
:100750002061637475616C202800090009000A5447
:10076000696D696E6720446174613A20287573650C
:10077000632900506172616D6574657273206861F0
:100780007665206265656E20736176656420746F9E
:1007900020454550524F4D002A2A2A204E6F64654D
:1007A0002049442076616C7565206F7574206F66F2
:1007B0002072616E67652E00207361766564207417
:1007C0006F20454550524F4D2E0A504F57455220ED
:1007D0004359434C4520544845204E4F44452E0034
:1007E0004E6F64652049442023004552524F523ACF
:1007F00020496E76616C6964206F75747075742021
:1008000070696E2C20005341564520434F4E464997
:100810004755524154494F4E20414E4420504F5766
:100820004552204359434C4520544845204E4F449F
:10083000450020636F6E74726F6C7320746865205E
:100840006164647265737361626C65204C45442019
:1008500073747269702E0020204F75747075742047
:1008600070696E20005341564520434F4E4649471C
:1008700055524154494F4E20414E4420504F574508
:1008800052204359434C4520544845204E4F44453F
:10089000004552524F523A20496E76616C6964208D
:1008A0004C454420737472697020636F6C6F75726D
:1008B00020776972696E673A20004552524F523A6A
:1008C00020496E76616C6964204C454420737472D3
:1008D0006970206672657175656E63793A200046AD
:1008E0007265652052414D3A20002E005245424F1C
:1008F0004F54494E4700464C583F4F4B00494D47D7
:10090000203E2033316B2C20746F6F2062696700AA
:10091000464C583F4F4B20726573656E64005D20F6
:100920003E2000726164696F205B00554E53686918
:100930006674696E67206368616E6E656C20746FA3
:1009400020005368696674696E67206368616E6E23
:10095000656C20746F2000464C583F4F4B20284157
:10096000434B2073656E7429004641494C3A4E4F03
:1009700020464C415348204D454D00444F4E4500C4
:10098000464C41534820494D47205452414E534D07
:10099000495353494F4E2053554343455353210A1E
:1009A000000000000800020100000304070000002E
:1009B0000000000000010204081020408001020431
:1009C0000810200102040810200404040404040494
:1009D00004020202020202030303030303000000F5
:1009E0000023002600290000000000250028002B1D
:1009F0000000000000240027002A00006D10E12400
:100A000011241FBECFEFD8E0DEBFCDBF13E0A0E0C2
:100A1000B1E0ECEBF3E602C005900D92A430B10713
:100A2000D9F725E0A4E0B3E001C01D92AA3DB207CA
:100A3000E1F714E0C0E0D5E004C02197FE010E9478
:100A4000912CCE3FD107C9F70E9425280C94DC31A8
:100A50000C940000E0E0F0E0099508958091920484
:100A6000E82FF0E0ED56FB4F308121816281538108
:100A700044818B5F80939204822F90E0830F911DBD
:100A8000E0913803F0913903E817F90718F18091E4
:100A9000D5039091D60373E0379F800D911D1124EB
:100AA0002223A9F030915803FC01E30FF11D60836C
:100AB00030917E01FC01E30FF11D508330917D01E7
:100AC000FC01E30FF11D408303962150E9CF81E043
:100AD0008093560380E0089580919204E82FF0E01F
:100AE000ED56FB4F408150E060E070E040934A03D8
:100AF00050934B0360934C0370934D038F5F80932F
:100B0000920489E08093550381E080937B0180E02B
:100B100008958AE08093550381E080937B0180E013
:100B20000895CF92DF92EF92FF9280919204E82F86
:100B3000F0E0ED56FB4F20814181C280D12CE12CA9
:100B4000F12CC0924203D0924303E0924403F0920E
:100B50004503C380D12CE12CF12CC0923E03D092EE
:100B60003F03E0924003F09241038C5F8093920434
:100B700030E0A4E6B0E00E94772C60934A037093C3
:100B80004B0380934C0390934D03242F30E00E943D
:100B9000772C6093460370934703809348039093A8
:100BA00049038BE08093550381E080937B0180E0D3
:100BB000FF90EF90DF90CF90089580E0089510921D
:100BC0007F0167EF76E080E395E00E947E2581E07B
:100BD00008950F931F93CF936EE577E080E395E040
:100BE0000E947E25C1E005EF13E06CE577E080E32D
:100BF00095E00E944D254AE050E06C2F80E395E09F
:100C00000E94F8256AE577E080E395E00E944D2593
:100C1000F801408151816281738114161506160610
:100C2000170634F58091E5039091E603A091E70360
:100C3000B091E803481B590B6A0B7B0B2AE030E0AC
:100C400080E395E00E94EB256CE477E080E395E09B
:100C50000E944D25F80140815181628173812AE013
:100C600030E080E395E00E943B266AE477E002C032
:100C700068E477E080E395E00E947E250C5F1F4FDB
:100C8000CF5FC03109F0B1CF6BE277E080E395E050
:100C90000E944D254091E5035091E6036091E703E2
:100CA0007091E8032AE030E080E395E00E94EB25B4
:100CB00068E277E080E395E00E947E2567E177E0D7
:100CC00080E395E00E944D254AE050E065E070E049
:100CD00080E395E00E94832661E177E080E395E080
:100CE0000E944D2540914F04509150046091510451
:100CF000709152042AE030E080E395E00E942926BA
:100D000081E0CF911F910F91089581E080937F0141
:100D10000E9480286093460470934704809348049F
:100D20009093490464E077E080E395E00E947E259B
:100D300081E0089590919204E92FF0E0ED56FB4F89
:100D400080819F5F90939204811103C0109252039F
:100D50001AC0813029F41092520380937C0113C091
:100D600091E09093520390E0029790935403809304
:100D700053030E94802860934E0370934F03809327
:100D800050039093510380E00895CF92DF92EF9249
:100D9000FF920F931F93CF93C82F0E948C28C0906F
:100DA000E903D090EA03E090EB03F090EC038B01B1
:100DB0009C010C191D092E093F096C157D058E0536
:100DC0009F0530F4D901C8010197A109B10902C0FA
:100DD000D901C80124E0C29FF0011124EF50FC4F5B
:100DE0004081518162817381481759076A077B07E7
:100DF00020F480839183A283B383CF911F910F91BD
:100E0000FF90EF90DF90CF9008956091D50370919F
:100E1000D6034091590350915A038091D303909186
:100E2000D4030C947D2E80919204E82FF0E0ED56CF
:100E3000FB4F7081618142818D5F8093920480912C
:100E4000D5039091D60320913803309139032115B1
:100E50003105B1F050915803FC01E50FF11D70838D
:100E600050917E01FC01E50FF11D608350917D01E1
:100E7000FC01E50FF11D4083039621503109E7CFB6
:100E80000E94050781E08093560380E008956091F9
:100E9000D3037091D4034091590350915A03809128
:100EA000D5039091D6030C947D2ECF93DF93809140
:100EB0009204E82FF0E0ED56FB4FC0818F5F8093E6
:100EC00092048C2F8370DC2FDC708330A9F0DC302F
:100ED00099F0882351F0C0FF03C00E94050702C0AB
:100EE0000E94470781E080935603DD2329F0C3FB6E
:100EF000CC27C0F9C093570380E0DF91CF910895CC
:100F0000CF93DF9300D000D01F92CDB7DEB7809192
:100F10009204E82FF0E0ED56FB4F90819983918188
:100F20009A8392819B8393819C838C5F80939204AC
:100F30001D8265E871E0CE0101960E948D2E892BFD
:100F400011F40E942A0580E00F900F900F900F90EF
:100F50000F90DF91CF9108959091D3048091E20496
:100F600098131DC0E0919204F0E0ED56FB4F808194
:100F70008735A9F48181813491F48281833579F4B4
:100F80008381803561F48481E82FF0E0E45DFD4FDA
:100F90009081992321F0843110F480933C0380E008
:100FA00008959091D3048091E204981327C0E091B2
:100FB0009204F0E0ED56FB4F80818735F9F4818192
:100FC0008134E1F482818335C9F483818035B1F4C1
:100FD00084819FEF980F943688F49581943011F0B6
:100FE000983061F42681263048F490933B03209397
:100FF0003A0390E0909339038093380380E008959A
:10100000CF9390919204E92FF0E0ED56FB4FC08111
:10101000818122819D5F909392049091D3043091BD
:10102000E204931332C030E83C0F353070F068EFC3
:1010300071E080E395E00E944D254AE050E06C2F7E
:1010400080E395E00E94FF2520C0C0934D048913E2
:101050000DC0821308C080934C0480934B0481E040
:1010600080934A0412C062EE71E004C0291307C0E5
:101070006CEC71E080E395E00E947E2506C08093D1
:101080004C0420934B0410924A0480E0CF910895C1
:101090000C9487310C948F319091D3048091E204A9
:1010A00098133BC0E0919204F0E0ED56FB4F808135
:1010B000873599F58181813481F58281833569F5A0
:1010C0008381803551F564818EEF860F8530F8F489
:1010D0006093E20481E090E00E944A0860E082E0D0
:1010E00090E00E944A0881E08093E40466E871E0A1
:1010F00080E395E00E944D254AE050E06091E204D3
:1011000080E395E00E94F8256EE571E002C06EE391
:1011100071E080E395E00E947E2580E0089580E004
:101120000895CF93DF9382E090E00E94480893E017
:1011300090933C03882361F183E090E00E9448088B
:10114000D82F80933C0384E090E00E94480880936D
:101150003B0385E090E00E94480880933A0386E0D4
:1011600090E00E944808C82F87E090E00E9448085D
:101170002C2F30E0322F2227280F311D30933903D6
:101180002093380361E08D2FDF91CF910C9451298A
:10119000DF91CF91089560913C0383E090E00E943D
:1011A0004A0860913B0384E090E00E944A08609105
:1011B0003A0385E090E00E944A086091390386E096
:1011C00090E00E944A086091380387E090E00E9416
:1011D0004A0861E082E090E00C944A080E94CB0843
:1011E00063E777E080E395E00E947E2581E0089543
:1011F0000E94CB0880E00895CF93DF9300D0CDB755
:10120000DEB72091D6053091D705CE010196211584
:10121000310519F48A5D954002C0821B930B9A83B5
:1012200089836FED78E080E395E00E944D25698128
:101230007A814AE050E080E395E00E948A260F9090
:101240000F90DF91CF9108958F929F92AF92BF92AE
:10125000CF92DF92EF92FF9263EC76E080E395E02D
:101260000E947E2567EB76E080E395E00E944D25A5
:1012700063E976E080E395E00E947E2568E676E00B
:1012800080E395E00E947E256DE376E080E395E0C3
:101290000E947E2561E176E080E395E00E947E2554
:1012A0006CEE75E080E395E00E947E256DEB75E0C5
:1012B00080E395E00E947E256BEA75E080E395E08F
:1012C0000E947E2569E975E080E395E00E947E2515
:1012D00067E875E080E395E00E947E2565E775E0AC
:1012E00080E395E00E947E2563E675E080E395E06B
:1012F0000E947E2567E575E080E395E00E944D251C
:1013000069E275E080E395E00E947E256AEF74E073
:1013100080E395E00E947E256FEE74E080E395E027
:101320000E944D2561EC74E080E395E00E947E25EB
:101330006AEB74E080E395E00E944D2569E974E072
:1013400080E395E00E947E2561E974E080E395E00A
:101350000E944D256EE774E080E395E00E947E25B3
:1013600067E774E080E395E00E944D2569E574E04D
:1013700080E395E00E947E2565E574E080E395E0DA
:101380000E944D256CE374E080E395E00E947E2589
:1013900065E074E080E395E00E947E256FEF73E0E6
:1013A00080E395E00E944D2569EE73E080E395E0CF
:1013B0000E947E256BED73E080E395E00E944D2551
:1013C0006EEC73E080E395E00E947E2580E395E07B
:1013D0000E947A256FEA73E080E395E00E947E2503
:1013E0006EE973E080E395E00E944D25609138033B
:1013F000709139034AE050E080E395E00E9417269F
:101400006DE873E080E395E00E944D2580913B03F9
:10141000843029F0883031F465E773E013C061E867
:1014200073E010C069E673E080E395E00E944D250B
:101430004AE050E060913B0380E395E00E94F8258C
:1014400067E673E080E395E00E947E2566E573E041
:1014500080E395E00E944D2580913A03823099F017
:1014600038F4882369F08130B9F466E473E024C06D
:10147000843079F058F0853079F466E273E01CC06E
:101480006EE473E019C06EE373E016C066E373E0C8
:1014900013C06EE273E010C06AE173E080E395E090
:1014A0000E944D254AE050E060913A0380E395E0C8
:1014B0000E94F82568E173E080E395E00E947E25B4
:1014C00067E073E080E395E00E944D2560913C0366
:1014D000062E000C770B4AE050E080E395E00E9476
:1014E0008A260E94FC086DEF72E080E395E00E947E
:1014F0004D2580917F01882309F485C00E948028B2
:10150000C0904604D0904704E0904804F09049040D
:101510009B01AC012C193D094E095F0969017A0153
:1015200034EFC30E31E0D31EE11CF11C60EF72E01A
:1015300080E395E00E944D25C701B60120E03CE51F
:1015400046E255E00E94362C4AE050E0622F80E3EC
:1015500095E00E94F82568EE72E080E395E00E9435
:101560004D25C701B60120E83EEE46E350E00E945B
:10157000362CCA01B90128E130E040E050E00E9479
:10158000362C4AE050E080E395E00E94F8256FEDAC
:1015900072E080E395E00E944D25C701B60120E688
:1015A0003AEE40E050E00E94362C8CE3882E912CDD
:1015B000A12CB12CCA01B901A50194010E94362CBD
:1015C0004AE050E080E395E00E94F82564ED72E087
:1015D00080E395E00E944D25C701B60128EE33E077
:1015E00040E050E00E94362CCA01B901A5019401E7
:1015F0000E94362C4AE050E080E395E00E94F825F6
:101600006AEC72E002C061EC72E080E395E00E9457
:101610007E2581E0FF90EF90DF90CF90BF90AF905C
:101620009F908F9008951F93CF93DF93C0913104C3
:10163000D0E0CE5CDB4F6AE871E0CE010E94962ECE
:10164000182F6AE871E0CE010E94782EE0913104F3
:101650002E2F210F20933104009769F0FC01019097
:101660000020E9F7E20FE81BE0933104DF91CF910E
:101670001F910C945A2E80E090E0DF91CF911F9142
:1016800008950F931F93CF93DF930E94130B8C0148
:101690000E94130BC82F0E94130BD82FC83061F083
:1016A000C43051F06AEB78E080E395E00E944D256C
:1016B0004AE050E06C2F0BC0D63070F061E978E062
:1016C00080E395E00E944D254AE050E06D2F80E3D5
:1016D00095E00E94FF250EC0109339030093380354
:1016E000C0933B03D0933A0365E678E080E395E04E
:1016F0000E947E2581E0DF91CF911F910F91089587
:10170000CF930E94130BC82F8DEF8C0F873020F0E2
:1017100082EF8C0F883000F5C0933C0367E578E0DA
:1017200080E395E00E944D2560913C03062E000C5D
:10173000770B4AE050E080E395E00E94832662E365
:1017400078E080E395E00E947E2566E078E080E323
:1017500095E00E947E250DC06AEE77E080E395E07B
:101760000E944D254AE050E06C2F80E395E00E94F6
:10177000FF2581E0CF9108950E94130B8093E2042E
:101780009EEF980F953010F5682F81E090E00E9451
:101790004A0860E082E090E00E944A0881E080937D
:1017A000E40460EE77E080E395E00E944D254AE096
:1017B00050E06091E20480E395E00E94F82568EB38
:1017C00077E080E395E00E947E25089568E977E060
:1017D00080E395E00E947E250895CF93DF9300D0AB
:1017E0001F92CDB7DEB790915803E1E0F0E0EC0F27
:1017F000FD1FE90FF11D808380917E01E1E0F0E0A3
:10180000EC0FFD1FE80FF11D608380917D01E1E089
:10181000F0E0EC0FFD1FE80FF11D408329816A8184
:10182000862F90E0A0E0B0E0BA2FA92F982F88274C
:10183000A22B2B81BC01CD01622B0F900F900F903A
:10184000DF91CF9108950F931F93CF93DF939091E2
:101850009204E92FF0E0ED56FB4F808161814281D7
:10186000C381D48115819A5F909392040E94ED0BFD
:10187000AB01BC01E091D503F091D6032091380370
:10188000309139032115310539F10081818190E0D2
:10189000A0E0B0E0BA2FA92F982F8827A02B0281B3
:1018A000802B481759076A077B0791F480915803EA
:1018B000DF01A80FB11DCC9380917E01DF01A80F3D
:1018C000B11DDC9380917D01DF01A80FB11D1C9338
:1018D000339621503109D6CF81E08093560380E0C2
:1018E000DF91CF911F910F910895CF92DF92EF92E8
:1018F000FF920F931F934FEF6FEF8FEF0E94ED0B4F
:101900006B017C0180917B01882349F010927B015F
:101910000E94470781E080930F03809356038091D4
:101920000F038823C1F010920F0310920E03109240
:101930000D0381E080930C03209142033091430317
:10194000409144035091450361E070E080E090E0F5
:101950000E940228F4C080910D0390910E030A9713
:1019600008F0EDC080910C03823009F45FC040F4B0
:10197000813009F0DEC010920B0310920A0307C0F9
:10198000833009F479C0843009F4A1C0D2C08091B9
:101990000A0390910B03A0E0B0E040914203509104
:1019A0004303609144037091450384179507A6078C
:1019B000B707E8F4209138033091390340E050E054
:1019C00060E070E0CB010E940228A701960180919F
:1019D000D7039091D8030E94EC2280910A03909142
:1019E0000B03019690930B0380930A03D0CF81E001
:1019F0008093560382E080930C030E948028C0905D
:101A00003E03D0903F03E0904003F0904103DC019F
:101A1000CB018C0D9D1DAE1DBF1D809306039093C1
:101A20000703A0930803B093090389C00E9480288C
:101A300000910603109107032091080330910903D8
:101A4000C0903E03D0903F03E0904003F0904103EC
:101A50000C151D052E053F0538F06017710782072C
:101A6000930708F46CC006C0061717072807390744
:101A700008F465C083E028C00E94470781E0809396
:101A800056030E9480286B017C012091460330910F
:101A90004703409148035091490360914A03709174
:101AA0004B0380914C0390914D030E940228C60E77
:101AB000D71EE81EF91EC0920603D0920703E092DB
:101AC0000803F092090384E080930C0338C00E945D
:101AD000802800910603109107032091080330919C
:101AE0000903C0903E03D0903F03E0904003F09084
:101AF00041030C151D052E053F0530F060177107D9
:101B00008207930730F41BC0061717072807390709
:101B1000B0F080910D0390910E03019690930E0307
:101B200080930D030A9718F081E080930F0381E002
:101B3000CBCF6AE171E080E395E00E944D2580E023
:101B40001F910F91FF90EF90DF90CF900895E0915B
:101B50001003E11104C0E0914E04EE2331F0E830AF
:101B600021F0E23011F010925503F0E0EE0FFF1F6C
:101B7000EF5CFE4F0190F081E02D099580931003FA
:101B80000895853538F4482F440F840F40E0682FBE
:101B9000809511C08A3A40F48555482F440F480F6C
:101BA000642F609580E007C08A5A482F440F840F45
:101BB000482F409560E00C94ED0BFF920F931F931C
:101BC000CF93DF9380917B01882339F010927B01C2
:101BD00080914A0390914B0309C080910C01909130
:101BE0000D0101968F3F910509F028F490930D01A6
:101BF00080930C0104C010920D0110920C01C09151
:101C0000D503D091D603F0900C0100E010E0809154
:101C100038039091390308171907D0F48F2D800FDE
:101C20000E94C10D90915803FE01E90FF11D8083C0
:101C300080917E01FE01E80FF11D708380917D018E
:101C4000FE01E80FF11D608323960F5F1F4FDFCF6A
:101C500081E08093560380E0DF91CF911F910F9137
:101C6000FF900895DF92EF92FF920F931F93CF930F
:101C7000DF9380917B01882319F010927B010EC0C5
:101C800080910A0190910B0101968F3F910509F017
:101C900028F490930B0180930A0104C010920B0169
:101CA00010920A01C091D503D091D603D0900A01B9
:101CB00000E010E0E12CF12C6091380370913903C1
:101CC000E616F706F8F4C8010E94222C8D2D860F27
:101CD0000E94C10D90915803FE01E90FF11D808310
:101CE00080917E01FE01E80FF11D708380917D01DE
:101CF000FE01E80FF11D608323968FEFE81AF80AC2
:101D00001395DACF81E08093560380E0DF91CF9185
:101D10001F910F91FF90EF90DF900895CF93DF9385
:101D200026E040E855E260E070E080E395E00E9444
:101D30001A2481E090E00E9448088093E204109207
:101D4000E4042DE4482F6BE284ED94E00E94881AAD
:101D50006091800184ED94E00E94A61D8FEF93E0D6
:101D60000E9448088F5F8093E30480E090E00E9427
:101D7000480891E0833009F490E09093E5048330C3
:101D800069F063E080E090E00E944A0860E082E051
:101D900090E00E944A081092E30402C00E94910859
:101DA0006091E3048FEF93E00E944A0863EE70E0D5
:101DB00080E395E00E944D2566ED70E080E395E0BC
:101DC0000E944D254AE050E06091E20480E395E0F6
:101DD0000E94F8256CEC70E080E395E00E947E257F
:101DE0006BEB70E080E395E00E944D2522E030E04F
:101DF00040E050E060EA70E480E395E00E947727DD
:101E000069EB70E080E395E00E944D256EE871E09B
:101E100080E395E00E94712561EB70E080E395E03E
:101E20000E944D254AE050E063E070E080E395E0D9
:101E30000E9483266FEA70E080E395E00E944D25C2
:101E40006BE971E080E395E00E9490256DE970E018
:101E500080E395E00E944D254AE050E061EB71E09F
:101E600080E395E00E94832669E970E080E395E0D5
:101E70000E944D256CE870E080E395E00E944D25BE
:101E80004AE050E06091E30480E395E00E94F82589
:101E900065E870E080E395E00E944D254FEF58E043
:101EA00060E070E080E091E0092E000CAA0BBB0B13
:101EB000481B590B6A0B7B0B2AE030E080E395E06E
:101EC0000E94EB256BE770E080E395E00E944D25D2
:101ED0000E94FC0880E395E00E947A2566EB71E0A1
:101EE00080E395E00E9471258FED94E00E944221ED
:101EF000882319F061EE71E002C061EF71E080E3C8
:101F000095E00E94902580E395E00E947A2568E69E
:101F100070E080E395E00E947E2510923D03809161
:101F20003A038230E1F050F4882391F0813071F56A
:101F30001092580392E090937E0116C08430F1F025
:101F4000B0F0853019F582E08093580381E01AC023
:101F50001092580381E080937E0182E005C091E0F9
:101F60009093580310927E0180937D010FC082E010
:101F70008093580310927E0181E0F6CF81E0809338
:101F8000580382E080937E0110927D0180913B0393
:101F9000883019F482E080933D038091380390915A
:101FA0003903892B89F080E190E00E943428EC010C
:101FB00020913A0380913B03280F60913803709180
:101FC000390340913C0309C080E190E00E9434282D
:101FD000EC0122E043E061E070E0CE010E94EB21E1
:101FE000D093D803C093D7038091380390913903DD
:101FF0009C01220F331F820F931F0E94972C9093F6
:10200000D4038093D3038091D7039091D8030E9487
:102010003A239093D6038093D5038091380390910F
:1020200039039C01220F331F820F931F90935A0391
:1020300080935903E5E3F4E0129212921292129205
:1020400083E0E13FF807C1F78091E20490E0019757
:102050004FE0489F9001499F300D11243093D104E7
:102060002093D0040E948028609346047093470414
:1020700080934804909349040E948C286093E9035C
:102080007093EA038093EB039093EC0380E00E944B
:10209000C5068091F1039091F203A091F303B091F2
:1020A000F4038093E5039093E603A093E703B093D2
:1020B000E80361E081E10E94512961E083E10E942F
:1020C000512961E082E10E9451298091D7039091CA
:1020D000D803DF91CF910C94272240E35FEE68E0B4
:1020E0008FED94E00E94DD2020E042E06AE084ED84
:1020F00094E00C94C517CF93DF938091370381113F
:102100000AC06EEB72E080E395E00E944D2581E00D
:102110008093370375C1813009F068C080E395E092
:102120000E943E23892B09F46BC180E395E00E9455
:102130005823E0913104883011F08F3761F4EE2399
:1021400019F0E150E0933104E0913104F0E0EE5CED
:10215000FB4F108255C18D3081F4F0E0EE5CFB4FF7
:10216000108280E395E00E943E23181619068CF435
:1021700080E395E00E945823F4CFE33109F426C1AF
:1021800091E09E0F90933104F0E0EE5CFB4F808372
:1021900037C18091E404882341F068E972E080E36C
:1021A00095E0DF91CF910C947E2582E080933703F8
:1021B0001092310422E334E0F9012F5F3F4F808118
:1021C000803231F4809131048F5F80933104F4CFF9
:1021D000F0933603E09335031092340389E0809343
:1021E000330385E08093320381E006C1823009F039
:1021F000F0C0D0913104ED2FF0E0EE5CFB4FF09396
:102200003603E0933503A091320384E0A89FD00108
:102210001124AD5ABE4F9C9111968C9121E02093D0
:102220003103A92FB82F3E2F2F2F8D918823B1F086
:102230009191911105C0309335032093360312C05C
:10224000891751F0309335032093360310923103F0
:10225000981754F0C1E009C0DF5FE5CFF093360373
:10226000E0933503C0E001C0CFEF90913103992393
:1022700029F0882319F010923103CFEF80913103B8
:10228000882309F445C0E0913503F091360380813D
:102290008F7D21F010923103C1E03AC066E972E00F
:1022A00080E395E00E944D2562E374E080E395E0D1
:1022B0000E94712564E972E080E395E00E947E252A
:1022C000E0913203A4E0EA9FF0011124ED5AFE4FA1
:1022D000828193819093300380932F03892B31F077
:1022E000D093310483E08093370312C066E672E036
:1022F00080E395E00E947E251092310484E1E2E3C0
:10230000F4E0DF011D928A95E9F71092370378C057
:1023100080913103811132C081E08093310340917B
:102320003403642F70E02091330330E0CB01019639
:102330008217930711F41092310390913203CF3F2B
:1023400071F490933303892F90E0861B970B97FDD0
:10235000019695958795840F809332030FC09093D3
:102360003403291B31092F5F3F4F37FF02C02F5F16
:102370003F4F35952795290F2093320382E00E9425
:10238000C5068091310381113BC064E672E080E3B1
:1023900095E00E944D2562E374E080E395E00E94A1
:1023A000712562E672E080E395E00E947E256DE48F
:1023B00072E080E395E00E947E251092370384E16D
:1023C000E2E3F4E0DF011D928A95E9F7109231040F
:1023D00017C0E0912F03F09130030995882359F03D
:1023E0001092370384E1E2E3F4E0DF011D928A9565
:1023F000E9F71092310483E0DF91CF910C94C50688
:10240000DF91CF91089510929304109292040E944C
:1024100080286A3071058105910508F468C084ED53
:1024200094E00E949C17882309F45EC08091EE041A
:102430008093D3048091EF048093D2048E3FA1F463
:1024400061E272E080E395E00E947E259091D304E2
:102450008091E204981308C029E040E06FED74E039
:1024600084ED94E00E9448208091D3048F3F21F4B2
:102470009091D204913061F09091E204891302C0EE
:10248000811106C090914D0489132DC0882359F104
:102490009091EC0481E0911101C080E0809353049D
:1024A0004091F00450E062EF74E083E994E00E9410
:1024B0007D2E1092F00490912E0381E08927809365
:1024C0002E03882311F061E001C060E083E10E94E7
:1024D0008D2981E08093920480919304813128F0CA
:1024E0001092930401C0789480E080934E04089584
:1024F0000F931F930E948C286093ED037093EE035B
:102500008093EF039093F0030E9480286093E1038F
:102510007093E2038093E3039093E4030091DD035F
:102520001091DE032091DF033091E00306171707B7
:102530002807390778F561E081E10E948D2960E084
:1025400083E10E948D2960E082E10E948D298091C3
:10255000E1039091E203A091E303B091E403AC01A5
:10256000BD0146505F4F6F4F7F4F4093D90350934B
:10257000DA036093DB037093DC038E579B4EAF4FFF
:10258000BF4F8093DD039093DE03A093DF03B093EE
:10259000E00321C00091D9031091DA032091DB03FD
:1025A0003091DC030617170728073907A0F460E00D
:1025B00081E10E948D298091DD039091DE03A0913D
:1025C000DF03B091E0038093D9039093DA03A093E3
:1025D000DB03B093DC038091ED039091EE03A091B7
:1025E000EF03B091F0038093E9039093EA03A09383
:1025F000EB03B093EC030E947B1084E00E94C506BD
:102600000E948C286093E9037093EA038093EB03A4
:102610009093EC030E94031285E00E94C50680910E
:102620007F01882379F00E948C286093E9037093DE
:10263000EA038093EB039093EC030E94A70D8CE0D8
:102640000E94C5068091570381114AC080915203B0
:10265000811105C080917C01811110C041C00E9490
:10266000802800914E0310914F0320915003309128
:102670005103601771078207930760F30E948C284B
:102680006093E9037093EA038093EB039093EC0368
:10269000E0915503F0E0EE0FFF1FE15FFE4F019068
:1026A000F081E02D099580917C01811114C00E9478
:1026B00080282091530330915403DC01CB01820F19
:1026C000931FA11DB11D80934E0390934F03A093C0
:1026D0005003B093510310927C018DE00E94C50617
:1026E0000E948C286093E9037093EA038093EB03C4
:1026F0009093EC0380915603882361F080915703F7
:10270000811108C08091D7039091D8030E9427229D
:10271000109256038EE00E94C5060E948C280091FC
:10272000ED031091EE032091EF033091F003601759
:1027300071078207930758F40095109520953095FE
:10274000DC01CB01800F911FA21FB31F06C0DC016B
:10275000CB01801B910BA20BB30B8093E9039093E9
:10276000EA03A093EB03B093EC038091E90390910B
:10277000EA03A091EB03B091EC0340912D0450913A
:102780002E0460912F0470913004481759076A078E
:102790007B0740F480932D0490932E04A0932F0484
:1027A000B09330041F910F910895AF92BF92CF92D2
:1027B000DF92EF92FF920F93CF93DF93C82F5B01CD
:1027C000D42F90912D0381E0892780932D038823B6
:1027D00011F061E001C060E082E10E948D290E9459
:1027E00080286B017C0100E02D2FA5016C2F84ED6A
:1027F00094E00E94BB1C0E948028DC01CB018C1954
:102800009D09AE09BF090697A105B10598F0809111
:102810004F0490915004A0915104B091520401963C
:10282000A11DB11D80934F0490935004A0935104B7
:10283000B0935204DF91CF910F91FF90EF90DF9012
:10284000CF90BF90AF9008950F931F93CF93DF93D6
:10285000D091930410925603C0912C03C1112AC148
:10286000D53009F0B7C20E94802860932803709386
:10287000290380932A0390932B0380912603909140
:102880002703019690932703809326033091D20467
:10289000313009F09FC220919204E22FF0E0ED5612
:1028A000FB4F8081082E000C990B90932503809399
:1028B00024032F5F20939204181619061CF43093FA
:1028C0000E0109C010920E01919581959109909386
:1028D000250380932403809124039091250385315F
:1028E00091050CF077C220913803309139032817F5
:1028F000390708F46FC2982F990F890F809323032B
:1029000060910E012091D5033091D603662311F119
:102910004091590350915A03FA01E81BF109E20F63
:10292000F31FABE5B3E0982FDE2F7F2F992321F023
:1029300011911D939150FACF942F981B892FAD2F91
:10294000B72FF901E40FF51F8823F9F09E919293B8
:102950008150FACFD9010BE513E0A901982F9923F3
:1029600041F0FA017191AF01F80171938F0191501B
:10297000F6CF90915903981BF901E80FF11D9923A7
:1029800021F081918D939150FACF80914A04882350
:1029900021F181E0809356032091D5033091D60335
:1029A00080912303ABE5B3E0662341F0F90188236E
:1029B00009F410C29D9191938150F9CFE091590390
:1029C000F0915A03E81BF109E20FF31F882309F481
:1029D00001C29D9191938150F9CF809128039091EC
:1029E0002903A0912A03B0912B03855B9F4FAF4F22
:1029F000BF4F80931F0390932003A0932103B093B4
:102A000022039091E204662319F080914C0402C0E5
:102A100080914B04891710F082E003C080931E035D
:102A200081E080932C0386E00E94C50680912C03F0
:102A3000409128035091290360912A0370912B0340
:102A4000823081F42091E20430E022503109EFE03D
:102A5000E29FC001E39F900D1124092E000CAA0BE8
:102A6000BB0B83C020911E0330E022503109EFE000
:102A7000E29FC001E39F900D1124092E000CAA0BC8
:102A8000BB0B840F951FA61FB71F80931A0390934B
:102A90001B03A0931C03B0931D030F96A11DB11D32
:102AA0008093160390931703A0931803B093190310
:102AB000C5E090C10E94802800911F03109120035F
:102AC00020912103309122030617170728073907A1
:102AD00048F0D53081F48091D204813061F4809344
:102AE000560306C068EF71E080E395E00E949025F0
:102AF00010922C036EC180912C03982F9D7F9130F2
:102B000009F0A9C00E9480280091160310911703B4
:102B100020911803309119036017710782079307FA
:102B2000D0F16AEF71E080E395E00E9490258091FA
:102B30002C03813051F582E080932C032091E20434
:102B400030E0225031094FE0429FC001439F900D79
:102B50001124092E000CAA0BBB0B409128035091A5
:102B6000290360912A0370912B03840F951FA61FE0
:102B7000B71F80931A0390931B03A0931C03B09379
:102B80001D030896A11DB11D8BCF10922C0381E06F
:102B9000809356031EC1D53009F08ACF9091D2049C
:102BA00080911E03981384CF80919204E82FF0E067
:102BB000ED56FB4F208130E04091240350912503D6
:102BC0002417350779F064EB71E080E395E00E940B
:102BD0004D254AE050E060912C0380E395E00E948F
:102BE000FF2566CF91E0980F809123033196A7E9E6
:102BF000B3E0ED01282F222321F0319139932150A8
:102C0000FACF980F9093920490910E012091D503E2
:102C10003091D603992339F0F901882391F09D91E1
:102C200091938150FACFE0915903F0915A03E81B38
:102C3000F109E20FF31F882321F09D9191938150B8
:102C4000FACF80912C03813011F487E001C08BE032
:102C50000E94C5066CCF823009F0B0C00E94802867
:102C600000911A0310911B0320911C0330911D0346
:102C7000601771078207930708F41ACF00911603B3
:102C800010911703209118033091190306171707A5
:102C90002807390708F442C085E0809355048091E5
:102CA00024038093560480912303ABE5B3E0E7E56A
:102CB000F4E0982F992321F02D9121939150FACF90
:102CC0008E5F8093540480910E01882319F08091C7
:102CD0004B0402C080914C0480931E0388E00E9444
:102CE000C5064091540465E574E080911E030E947E
:102CF000D51389E00E94C5060E94802800911A031E
:102D000010911B0320911C0330911D036017710764
:102D10008207930798F46FEA71E002C069EA71E0F4
:102D200080E395E00E944D25609126037091270372
:102D30004AE050E080E395E00E94172620910E01C2
:102D400090914C048091E204222351F0981718F4DA
:102D500010922C0310C020914B042817C8F306C012
:102D60009817B0F390914B04981790F390931E032B
:102D700083E080932C038AE00E94C506C0912C0357
:102D8000C11104C081E08093560324C020911E032A
:102D900030E0215031094FE0429FC001439F900D28
:102DA0001124092E000CAA0BBB0B40912803509153
:102DB000290360912A0370912B0363CE10922C0398
:102DC00081E08093560360E971E080E395E00E9422
:102DD0007E25C0E08C2FDF91CF911F910F91089538
:102DE0000F931F9380911503811128C08091D20405
:102DF000813009F060C0809315030E9480282091E3
:102E0000E20430E0A90142505109E4E6E49F900158
:102E1000E59F300D11248901330F220B330BDC01A8
:102E2000CB01800F911FA21FB31F809311039093BA
:102E30001203A0931303B09314033FC00E94802891
:102E40000091110310911203209113033091140388
:102E5000601771078207930780F110921503109293
:102E600011031092120310921303109214038CE0BA
:102E70008093550483E08093560485E08093570443
:102E80001092580480913C03809359048091380338
:102E900080935A0480913B0380935B0480913A03B2
:102EA00080935C0488E08093540448E065E574E016
:102EB00081E00E94D51380E001C08CE01F910F914A
:102EC0000895089581E08093E8048091E60490914C
:102ED000E704DC01ED91FC910484F585E02D099572
:102EE0001092E8040895FC01F8948CB581878DB5A3
:102EF00082878CB5837F8CBD8CB58F7D8CBD8CB566
:102F00008C7F8CBD8DB58E7F8DBD60E082810C94F1
:102F10008D29CF93DF93EC0161E08A810E948D2996
:102F200089858CBD8A858DBD8091E804811101C0A1
:102F30007894DF91CF910895F8942091F104233093
:102F400021F42091ED0421110FC02091F1042330D0
:102F500011F4789407C0DC01ED91FC910288F389AB
:102F6000E02D099580E00895DC01ED91FC91048845
:102F7000F589E02D61E0099581E008958EBD00009E
:102F80000DB407FEFDCF8EB50895FC0180E592E0FB
:102F9000918380836283438381E08093F10416826E
:102FA0008FE1878320870895CF93C62FDC01ED91B1
:102FB000FC910480F581E02D0995882361F08091D2
:102FC000EF04C81711F0CF3F29F49091EB0481E092
:102FD000911101C080E0CF9108953F924F925F928E
:102FE0006F927F928F929F92AF92BF92CF92DF9219
:102FF000EF92FF920F931F93CF93DF93EC01162F65
:103000005A01822E902E312CCE2CD12CE12CF12C79
:10301000E881F9810190F081E02D01E0282DA501E2
:10302000612FCE0109950E9480282B013C010E944E
:103030008028DC01CB0184199509A609B7098C15F4
:103040009D05AE05BF0538F4612FCE010E94D4174F
:10305000882369F304C033949314D0F680E0DF91A1
:10306000CF911F910F91FF90EF90DF90CF90BF9085
:10307000AF909F908F907F906F905F904F903F9018
:1030800008951F93CF93DF93EC01162FE881F98108
:10309000008CF18DE02D0995812F8F770E94BE174E
:1030A00080E00E94BE17182FE881F981028CF38D11
:1030B000E02DCE010995812FDF91CF911F910895C9
:1030C0000F931F93CF93DF938C0167E00E94411809
:1030D000C82F68E0C8010E944118D82F69E0C801D4
:1030E0000E9441184C2F50E060E070E0BA01552773
:1030F0004427480F511D611D711D8D2F90E0982FA1
:1031000088278A019B01080F191F211D311DC90144
:10311000B8010E94F92A20E034E244E752E40E9418
:10312000B02B0E94CA2ADF91CF911F910F91089571
:103130000F931F93CF93DF93EC01062F142FE88199
:10314000F981008CF18DE02D0995802F80680E9417
:10315000BE17812F0E94BE17E881F981028CF38D82
:10316000E02DCE01DF91CF911F910F910994CF9265
:10317000DF92EF92FF921F93CF93DF93EC016A01EE
:103180007B011091F104143039F4E881F98104884D
:10319000F589E02D63E00995C701B6010E94F92A7F
:1031A00020E034E244E752E40E94582A0E94CA2AEE
:1031B0006B017C01A7016627772767E0CE010E949B
:1031C000981877276F2D5E2D4D2D68E0CE010E9457
:1031D00098184C2D69E0CE010E949818133041F4E4
:1031E000E881F9810488F589E02D62E0CE01099536
:1031F000E881F9810488F589E02D612FCE01DF9106
:10320000CF911F91FF90EF90DF90CF9009941F9383
:10321000CF93DF932091F104261709F45DC0162F98
:10322000EC016230E9F168F4662309F440C06130D2
:1032300009F052C061E00E944118837E482F44602B
:103240003BC06330B9F0643009F046C061E00E94D1
:103250004118837E482F4C6061E0CE010E9498188F
:103260008885882369F1E881F9810688F789E02D4E
:1032700061E013C061E00E944118837E482F4061E5
:1032800061E0CE010E94981888858823C9F0E88102
:10329000F9810688F789E02D60E0CE01099510C01C
:1032A00061E00E944118837E482F486005C061E0BC
:1032B0000E944118482F437E61E0CE010E94981879
:1032C0008091F104811106C067E2CE010E9441188D
:1032D00087FFF6CF1093F104DF91CF911F910895EE
:1032E000CF93DF93EC01603208F06FE16F83888544
:1032F000882311F066956F8361E1CE010E94411829
:10330000807E9F81482F492B61E1CE01DF91CF91D3
:103310000C949818CF92DF92EF92FF920F931F9325
:10332000CF93DF93EC01F62ED42EC52E122FE88119
:10333000F9810488F589E02D61E0099567E2CE0105
:103340000E94411887FFFACF40E065E2CE010E945B
:1033500098181E3308F01DE3E11004C0002321F08B
:1033600000E403C000E801C000E0E881F981008CBE
:10337000F18DE02DCE01099580E80E94BE1783E013
:10338000810F0E94BE178F2D0E94BE178D810E9453
:10339000BE17802F0E94BE170D2DED2CFC2C8E2DFC
:1033A000801B811730F4F70181917F010E94BE17C5
:1033B000F6CFE881F981028CF38DE02DCE010995DD
:1033C000E881F9810488F589E02D64E0CE01099552
:1033D0000E9480286B017C018B810E94BC29892B73
:1033E00081F0E881F9810488F589E02D61E0CE0162
:1033F000DF91CF911F910F91FF90EF90DF90CF90D1
:1034000009940E948028DC01CB018C199D09AE092A
:10341000BF09883E9340A105B105F0F2E2CFCF93FA
:10342000DF93EC011092F0041092EF041092EE047E
:103430001092ED041092EC041092EB041092EA0446
:103440001092E90468E20E94411882FF0AC06DE30D
:10345000CE010E944118482F44606DE3CE010E94C6
:10346000981840E465E2CE010E949818E881F9813D
:103470000488F589E02D63E0CE01DF91CF910994B6
:10348000CF92DF92EF92FF920F931F93CF93DF9330
:10349000EC018B01E881F9810488F589E02D61E078
:1034A000099501151105F1F0E881F981008CF18D84
:1034B000E02DCE0109958EEB0E94BE1778016801C0
:1034C00080E1C80ED11CF70181917F010E94BE17D7
:1034D000EC14FD04C1F7E881F981028CF38DE02D35
:1034E000CE0109956DE3CE010E9441188E7F41E027
:1034F000012B09F440E0482B6DE3CE01DF91CF9121
:103500001F910F91FF90EF90DF90CF900C9498183F
:103510008F929F92AF92BF92CF92DF92EF92FF92E3
:103520000F931F93CF93DF93CDB7DEB7AE970FB650
:10353000F894DEBF0FBECDBF8C01E42EDC011396E4
:103540008C91823021F0833021F08FEF03C080E036
:1035500001C081E0F80184838EE2AE014F5F5F4FCE
:103560006A01DA01E82F1D92EA95E9F791E0998363
:1035700034E03A8342E04B8393E09D834E833F8364
:1035800040E4488735E039879A8796E09B8793E344
:103590009C8737E03D8798E09F8799E0998B99E178
:1035A0009B8B92E49C8B55E25D8B4E8B46E24F8B5E
:1035B000388F38E2398F30E13A8F39E23B8F3CED7A
:1035C0003C8F8D8F88E88E8F8FE28F8F8DE288A35E
:1035D00080E389A337E33BA330E93CA338E33DA371
:1035E0009EA39CE39FA39FE898A79DE399A792E1E0
:1035F0009AA79FE69BA78CA78FEF8DA76F3131F01D
:103600006B3231F0663531F084EE05C08EE403C0D4
:103610008CE601C089ED8E876F3141F06B3221F06D
:10362000663521F480E003C080E401C080EC888B23
:103630002AA361E0D80112968C910E948D2961E045
:10364000F80182810E9451290E94A7200E948028AF
:103650004B015C014AEA6FE2C8010E9498186FE2D0
:10366000C8010E9441188A3A61F00E948028DC015A
:10367000CB0188199909AA09BB09C297A105B1050F
:1036800048F30E9480284B015C0145E56FE2C801C8
:103690000E9498186FE2C8010E944118853561F0B8
:1036A0000E948028DC01CB0188199909AA09BB096D
:1036B000C297A105B10548F3F12CF601EF0DF11DFC
:1036C000EF0DF11D60816F3F31F04181C8010E9413
:1036D0009818F394F2CF60E070E0C8010E94401A9D
:1036E000D801ED91FC9111970084F185E02D189699
:1036F0006C91C8010995D801ED91FC910488F58978
:10370000E02D61E0C80109950E9480284B015C0111
:1037100067E2C8010E94411887FD0CC00E94802802
:10372000DC01CB0188199909AA09BB09C297A10537
:10373000B10570F30E948028DC01CB01881999093A
:10374000AA09BB09C297A105B10598F41092E80433
:1037500043E050E062E677E1F80184810E947A2735
:103760001093E7040093E604D8011596EC9281E0EB
:1037700001C080E0AE960FB6F894DEBF0FBECDBF9D
:10378000DF91CF911F910F91FF90EF90DF90CF903D
:10379000BF90AF909F908F900895CF93DF93EC01EF
:1037A00061110DC064E2CE010E94411890E0919534
:1037B0008195910995958795DF91CF91089541E085
:1037C00063E20E94981863E2CE010E94411881FFD3
:1037D000FACFE8CFCF93DF932091F1042330A9F4FF
:1037E0002091ED04211111C0EC0160E00E94CD1B7D
:1037F000863A9F4F54F4E881F9810488F589E02DD9
:1038000061E0CE01099581E001C080E0DF91CF91B8
:103810000895EF92FF921F93CF93DF93EC01809175
:10382000F104833001F568E2CE010E94411882FD67
:1038300028C019C08091F0048D3330F4E091F00479
:10384000F0E0EE50FB4F1082E881F981028CF38D9D
:10385000E02DCE010995E881F9810488F589E02DF4
:1038600063E0CE01099560E0CE010E94CD1B9093EC
:10387000EA048093E904DF91CF911F91FF90EF90CC
:103880000895E881F9810488F589E02D61E0CE0191
:103890000995E881F981008CF18DE02DCE01099523
:1038A00080E00E94BE1780E00E94BE178093ED0466
:1038B0008091ED048334D0F48091ED048093ED0485
:1038C00080E00E94BE178093EE048E81811109C0B2
:1038D0008091EE049D81981721F08091EE048F3F36
:1038E00039F48091ED04833018F017C082E4E6CFFC
:1038F0001092ED04E881F981028CF38DE02DCE0168
:103900000995E881F9810288F389E02DCE01DF91E4
:10391000CF911F91FF90EF9009948091ED04835017
:103920008093F00480E00E94BE178093EF0480E053
:103930000E94BE17982F90789093EB04982F907464
:103940009093EC04E881F9810684F785E02D682FD7
:10395000CE01099510E08091F004181708F06ACFA5
:10396000E12EF12C80E00E94BE17F701EE50FB4FD4
:1039700080831F5FF0CF8F929F92AF92BF92CF92C2
:10398000DF92EF92FF920F931F93CF93DF93EC019F
:10399000162F6A01F22E6DE30E944118482F4460F1
:1039A0006DE3CE010E9498180E9480284B015C01B3
:1039B000CE010E94EA1B811115C00E948028DC0103
:1039C000CB0188199909AA09BB09883E9340A10532
:1039D000B10540F4E881F9810480F581E02DCE0144
:1039E0000995E6CFE881F9810088F189E02DE12C85
:1039F0002F2DA601612FCE010995DF91CF911F9147
:103A00000F91FF90EF90DF90CF90BF90AF909F907D
:103A10008F9008954F925F926F927F92AF92BF9274
:103A2000CF92DF92EF92FF920F931F93CF93DF938A
:103A3000EC015B01F42E1092EC041091EF04C090A5
:103A4000E904D090EA046DE30E944118482F4460D5
:103A50006DE3CE010E9498180E9480282B013C0142
:103A6000CE010E94EA1B811115C00E948028DC0152
:103A7000CB0184199509A609B709883E9340A10591
:103A8000B10540F4E881F9810480F581E02DCE0193
:103A90000995E6CF1093EF04E881F9810088F18958
:103AA000E02DEE24E39400E02F2DA501612FCE013F
:103AB0000995D092EA04C092E904DF91CF911F9159
:103AC0000F91FF90EF90DF90CF90BF90AF907F90DD
:103AD0006F905F904F9008951F93CF93DF93EC0109
:103AE000162F611102C045E501C04DE56AE5CE0122
:103AF0000E949818111102C040E701C04CE76CE524
:103B0000CE01DF91CF911F910C949818CF93DF9342
:103B1000EC016887611102C04AE101C04FE063E136
:103B2000CE010E9498188885882341F061E1CE017A
:103B30000E9441188F71482F406602C04F81406833
:103B400061E1CE01DF91CF910C949818FC0166835E
:103B50000895CF93DF93EC01CB014423B1F00E9491
:103B60004221811112C0E881F9810680F781E02DA0
:103B70004FE06CE672E0CE01099569E679E080E3FA
:103B800095E0DF91CF910C947E25E881F981068044
:103B9000F781E02D46E06CE772E0CE01DF91CF9136
:103BA0000994EF92FF920F931F93CF93DF938C01B1
:103BB000EC01C60FD11DC017D107D9F07801F8016B
:103BC000608162956F7060636A330CF0695F80E3B7
:103BD00095E00E9473250F5F1F4FF70160816F70A2
:103BE00060636A330CF0695F80E395E00E9473259F
:103BF000E2CFDF91CF911F910F91FF90EF90089549
:103C00002F923F924F925F926F927F928F929F92EC
:103C1000AF92BF92CF92DF92EF92FF920F931F93DA
:103C2000CF93DF93CDB7DEB765970FB6F894DEBFBD
:103C30000FBECDBF5C016D8B7A01C22E0C8B40E0B4
:103C400050E0BA01C7010E94CD2107E028E932E027
:103C500040E050E0BA01C7010E949B212AE349E0FD
:103C600050E060E070E0C7010E9477210E94802848
:103C70001B012C010AE010E0612C712CD501ED91A3
:103C8000FC910480F581E02DC5010995882301F19F
:103C90008091EF04BD898B131BC06091F004698B88
:103CA000643020F08091F204863409F161E08C895F
:103CB0000E94512961E08C890E948D2961E070E0A9
:103CC00080E090E00E94B12860E08C890E948D29FC
:103CD0000E948028DC01CB0182199309A409B5094F
:103CE000893B9B40A105B10548F280E030C180913D
:103CF000F3048C34D9F68091F4048835B9F68091B8
:103D0000F5048A3309F0ACC02989273008F4A8C02B
:103D100084E090E0812C912C482FDD24DA94D80E99
:103D2000FC01EE50FB4F2081203308F408C12081B4
:103D30002A3308F004C15081AAE0A89D9001A99DF2
:103D4000300D11244901B0E38B1A9108850E911CA6
:103D500001968830910501F7D42ECC20C1F063E2A2
:103D600079E080E395E00E944D254AE050E06989C2
:103D700080E395E00E94F8256EE179E080E395E02C
:103D80000E944D25698982EF94E00E94D11DE1E0F7
:103D9000ED0DF0E0EE50FB4F80818A3309F0A5CFA6
:103DA0000E9480281B012C016814790439F0C3019A
:103DB00001978815990509F053C028C0D394D3946E
:103DC0006FEF661A760A8989D81600F5ED2DF0E0B6
:103DD000EE50FB4F2081D8011196BB8BAA8BA80116
:103DE00060E070E0C7010E9477218A899B899F77F4
:103DF000892B41F48A899B89AC0160E070E0C7019E
:103E00000E94CD21D3940A891B89DDCF9F928F9286
:103E1000A0EAB2E0BF93AF9381E090E08C0F9D1FCA
:103E20009F938F930E94D42ED82E0F900F900F90B7
:103E30000F900F900F90CC2039F0BE016F5F7F4F35
:103E400080E395E00E949025D501ED91FC910680DC
:103E5000F781E02D4D2DBE016F5F7F4FC5010995A4
:103E60008091F5048F3309F021CFB989B43079F40A
:103E700041E0B701C5010E94A91DCC2009F416CF6D
:103E800060E179E080E395E00E947E250FCF2989EB
:103E9000273009F00BCF8091F604853409F006CF66
:103EA0008091F7048F3409F001CF8091F8048634B3
:103EB00009F0FCCE48016AE0861A910881E0881674
:103EC0008CE79806A0F0CC2031F06DEF78E080E32D
:103ED00095E00E947E25D501ED91FC910680F78149
:103EE000E02D4FE06AEA72E0C5010995FECE40E0A0
:103EF000B701C5010E94A91DCC2031F066EF78E022
:103F000080E395E00E947E25292D47E050E060E0A7
:103F100070E0C7010E94772126EF200F48E050E0B3
:103F200060E070E0C7010E9477212AE349E050E099
:103F300060E070E0C7010E94772181E008C0208125
:103F40002A3309F005CF443009F007CFCECE65966D
:103F50000FB6F894DEBF0FBECDBFDF91CF911F919A
:103F60000F91FF90EF90DF90CF90BF90AF909F9018
:103F70008F907F906F905F904F903F902F9008951B
:103F8000CF92DF92FF920F931F93CF93DF93EC01B9
:103F9000162F6A01F22E41E0B6010E94A91DFF20F2
:103FA000D9F067E579E080E395E00E947E2562E440
:103FB00079E080E395E00E944D25CE010E946018D3
:103FC000AB01BC01405C5D4B604F7F4F2AE030E0AD
:103FD00080E395E00E942926CE010E946018AB0183
:103FE000BC01405C5D4B604F7F4FCE010E94B71813
:103FF0002F2DA601612FCE010E94001E182FFF2039
:10400000A9F06BE279E080E395E00E944D25CE01B6
:104010000E946018AB01BC01405452446F407109CA
:104020002AE030E080E395E00E942926CE010E943C
:104030006018AB01BC01405452446F407109CE017D
:104040000E94B718812FDF91CF911F910F91FF90A0
:10405000DF90CF900895C82F882331F06CEE78E080
:1040600080E395E00E944D2598E088E10FB6F89432
:10407000A895809360000FBE90936000C11101C0AD
:10408000FFCF6AEE78E080E395E00E944D25F6CF01
:104090000F93CF933091F004343008F455C0309131
:1040A000F204363409F050C03091F3043C3409F086
:1040B0004BC03091F404383509F046C03091F50416
:1040C0003F3309F041C0022FC42FAB016091EF04D0
:1040D0002091F0042730C1F42091F6042534A1F496
:1040E0002091F7042F3481F42091F804263461F4F0
:1040F000DC01ED91FC910190F081E02D00E026E0E3
:104100004CE752E0099520C02C2F0E94C01F882345
:1041100059F0CC2331F060E879E080E395E00E942B
:104120004D258C2F0E942B20CC2371F06AEB72E07E
:1041300080E395E00E9471256BE779E080E395E0EC
:10414000CF910F910C947E25CF910F910895CF932D
:10415000CFB7F89480912F05811127C0E3EDF9E0E6
:104160008491EFEBF9E09491E82FF0E0EE0FFF1F60
:10417000EF50F64FA591B491EC91E92321F461E061
:104180008AE00E948D2961E08AE00E9451298CB565
:1041900080618CBD8CB580648CBD61E08DE00E9437
:1041A000512961E08BE00E94512980912F058F5F9A
:1041B00080932F05CFBFCF910895FC016083528378
:1041C00041830895F89460E0FC0180810C948D296E
:1041D00061E0FC0180810E948D29789408950F93FD
:1041E0001F93CF93DF938C010E94E2208FE90E94FE
:1041F000BE1780E00E94BE17C82FD0E0DC2FCC276E
:1042000080E00E94BE17C82BC8010E94E820CE01A2
:10421000DF91CF911F910F9108951F93CF93DF935B
:10422000EC010E94E22085E00E94BE1780E00E941F
:10423000BE17182FCE010E94E820812FDF91CF9169
:104240001F9108950E940D21817008951F93CF93AF
:10425000DF93EC01162F442339F040E066E00E9422
:104260002621CE010E94E820CE010E942221811148
:10427000FBCFCE010E94E220812FDF91CF911F91D1
:104280000C94BE17CF93DF93EC0161E088810E940C
:104290005129CE010E94E8208CB5837F8CBD8CB55E
:1042A0008F7D8CBD8CB58C7F8CBD8DB581608DBDB7
:1042B0000E94A72089819A81892B51F0CE010E940A
:1042C000EF2029813A818217930711F080E00CC01A
:1042D00041E061E0CE010E94262180E00E94BE17ED
:1042E000CE010E94E82081E0DF91CF910895EF9206
:1042F000FF920F931F93CF93DF93EC01042FF52EC2
:10430000E62E122F41E062E00E9426218E2D0E94AF
:10431000BE178F2D0E94BE17802F0E94BE17812FBF
:104320000E94BE17CE01DF91CF911F910F91FF9098
:10433000EF900C94E820CF92DF92EF92FF920F93D0
:104340001F93CF93DF937C01EA01C62ED22E132F49
:1043500041E062E00E9426218C2D0E94BE178D2F25
:104360000E94BE178C2F0E94BE17CD2DD12FCE01DB
:10437000800F911D8C01C017D10721F089910E94F7
:10438000BE17F9CFC701DF91CF911F910F91FF9019
:10439000EF90DF90CF900C94E820FF920F931F9343
:1043A000CF93DF93EC01142F052FF62E41E062E549
:1043B0000E9426218F2D0E94BE17802F0E94BE17BB
:1043C000812F0E94BE17CE01DF91CF911F910F91D7
:1043D000FF900C94E8200F931F93CF93DF938C01F1
:1043E000FC0171836083EB01CC0FDD1FC60FD71F6B
:1043F000D383C2832483458350E0FA01E753F64F09
:10440000E491F0E0EE0FFF1FE951F64F8591949192
:10441000F80196878587FA01EB54F64F4491F8012D
:104420004787CE010E94972CF801908787830097D9
:1044300049F0AE0160E070E0DF91CF911F910F91E4
:104440000C94862EDF91CF911F910F910895CF92FA
:10445000DF92EF92FF920F931F93CF93DF93CDB72D
:10446000DEB729970FB6F894DEBF0FBECDBF8C0123
:10447000DC0117968D919C911897892B09F49DC0AA
:104480000E948C28F801C184D284E384F484DC0186
:10449000CB018C199D09AE09BF09C297A105B105D1
:1044A00078F3F894828193819A8389830780F085D9
:1044B000E02D7F01BFEFEB1AFB0A80818987F801AD
:1044C00094810584F685E02DD8011F968C9191FF8B
:1044D00030C09081982B98879081809589238F8315
:1044E0008F818E8388E08D8358856F8149853D81DA
:1044F0002E8189819A81D701508347FD252F3A95D6
:104500002083262F39F0441F00C000006083000084
:1045100000C0F2CF38E04D9160830000019761F751
:10452000D8011E96FC93EE931D9749873D832E83F9
:104530003AC09081982B98879081809589238F83AA
:104540008F818C8388E08B8358856F8149853B817F
:104550002C8189819A81D701508347FD252F00C086
:1045600000C0208300C000C000C000C000C0608345
:104570000000262F3A9541F0441F000000C000C003
:1045800000C000C000C0E8CF38E04D9100C060839B
:1045900000C0019709F7D8011E96FC93EE931D9772
:1045A00049873B832C839A83898378940E948C2843
:1045B000F801618772878387948729960FB6F894EC
:1045C000DEBF0FBECDBFDF91CF911F910F91FF9046
:1045D000EF90DF90CF9008958F929F92AF92BF920D
:1045E000CF92DF92EF92FF92CF93DF93DC018D9118
:1045F0009C9111976817790790F54A01AA24BB246A
:10460000C82DC32ED42EE52EFF248C2DD22F169626
:104610009C911697992361F0899E40011124C92D20
:104620009C9D600111248D2D929F90011124D32F08
:10463000FB01EE0FFF1F6E0F7F1F1796ED91FC9190
:104640001897E60FF71F14969C91DF01129690FFC2
:1046500003C08083C18302C0C0838183DC93DF9168
:10466000CF91FF90EF90DF90CF90BF90AF909F9051
:104670008F900895FC01878190850895FC01918DAC
:10468000228D892F90E0805C9F4F821B91098F7350
:1046900099270895FC01918D828D981731F0828DB4
:1046A000E80FF11D858D90E008958FEF9FEF08953D
:1046B000FC01918D828D981761F0828DDF01A80F2A
:1046C000B11D5D968C91928D9F5F9F73928F90E04C
:1046D00008958FEF9FEF0895FC01538D448D252F92
:1046E00030E0842F90E0821B930B541710F0CF968C
:1046F00008950197089587ED94E2892B49F080E0B1
:1047000090E0892B29F00E94D72481110C9400009D
:104710000895FC01848DDF01A80FB11DA35ABF4F7E
:104720002C91848D90E001968F739927848FA689B0
:10473000B7892C93A089B1898C91837080648C9304
:10474000938D848D981306C00288F389E02D8081B3
:104750008F7D80830895EF92FF920F931F93CF93E5
:10476000DF93EC0181E0888F9B8D8C8D981305C0C1
:10477000E889F989808185FD26C0F62E0B8D10E031
:104780000F5F1F4F0F731127E02E8C8DE8120CC0A6
:104790000FB607FCFACFE889F989808185FFF5CF4C
:1047A000CE010E948923F1CF8B8DFE01E80FF11D10
:1047B000E35AFF4FF0829FB7F8940B8FEA89FB8989
:1047C000808180620AC09FB7F894EE89FF89608378
:1047D000E889F98980818370806480839FBF81E04C
:1047E00090E0DF91CF911F910F91FF90EF9008958E
:1047F000CF93DF93EC01888D8823C9F0EA89FB8988
:10480000808185FD05C0A889B9898C9186FD0FC07E
:104810000FB607FCF5CF808185FFF2CFA889B98953
:104820008C9185FFEDCFCE010E948923E7CFDF91E8
:10483000CF910895CF92DF92EF92FF921F93CF9383
:10484000DF93EC016A017B01122FE889F98982E08C
:1048500080834115514E61057105B1F060E079E04A
:104860008DE390E0A70196010E94362CDA01C90180
:104870000197A109B109B695A795979587959C01D0
:10488000211580E13807A8F0E889F989108260E8ED
:1048900074E88EE190E0A70196010E94362CDA01BF
:1048A000C9010197A109B109B695A7959795879573
:1048B0009C01EC85FD853083EE85FF852083188E75
:1048C000EC89FD891083EA89FB898081806180837E
:1048D000EA89FB89808188608083EA89FB898081FD
:1048E00080688083EA89FB8980818F7D8083DF9166
:1048F000CF911F91FF90EF90DF90CF9008951F927E
:104900000F920FB60F9211242F938F939F93EF93D3
:10491000FF93E0914005F09141058081E0914605CB
:10492000F091470582FD12C09081809149058F5F0B
:104930008F7320914A05821751F0E0914905F0E00C
:10494000E05DFA4F958F8093490501C08081FF910A
:10495000EF919F918F912F910F900FBE0F901F900D
:1049600018951F920F920FB60F9211242F933F9319
:104970004F935F936F937F938F939F93AF93BF9367
:10498000EF93FF9380E395E00E948923FF91EF91DD
:10499000BF91AF919F918F917F916F915F914F9157
:1049A0003F912F910F900FBE0F901F90189580E3AD
:1049B00095E00E943E2321E0892B09F420E0822F1C
:1049C0000895E0E3F5E01382128288EE93E0A0E020
:1049D000B0E084839583A683B78387EE92E09183CA
:1049E000808385EC90E09587848784EC90E09787BE
:1049F000868780EC90E0918B808B81EC90E0938BAC
:104A0000828B82EC90E0958B848B86EC90E0978B88
:104A1000868B118E128E138E148E0895CF92DF9294
:104A2000EF92FF920F931F93CF93DF936C017A0164
:104A30008B01C0E0D0E0CE15DF0581F0D8016D918B
:104A40008D01D601ED91FC910190F081E02DC60120
:104A50000995892B11F02196EECF7E01C701DF91D8
:104A6000CF911F910F91FF90EF90DF90CF9008951D
:104A70006115710579F0FB0101900020E9F731978C
:104A8000AF01461B570BDC01ED91FC910280F381D5
:104A9000E02D099480E090E00895EF92FF920F934B
:104AA0001F93CF93DF938C017B01C0E0D0E0F7012F
:104AB000EC0FFD1F6491662361F0D801ED91FC912C
:104AC0000190F081E02DC8010995892B11F0219604
:104AD000EECFCE01DF91CF911F910F91FF90EF901C
:104AE00008950C943825DC01ED91FC910190F08142
:104AF000E02D099465EF72E00C9438250F931F9315
:104B0000CF93DF93EC010E944D258C01CE010E94D2
:104B10007A25800F911FDF91CF911F910F910895FA
:104B20000F931F93CF93DF93EC010E9438258C01E4
:104B3000CE010E947A25800F911FDF91CF911F91A6
:104B40000F9108958F929F92AF92BF92EF92FF9232
:104B50000F931F93CF93DF93CDB7DEB7A1970FB617
:104B6000F894DEBF0FBECDBF7C01FA01CB0119A2C4
:104B7000223008F42AE08E010F5D1F4F822E912C07
:104B8000A12CB12CBF01A50194010E94362CF90182
:104B9000CA01015011096A3014F4605D01C0695CFA
:104BA000D8016C93232B242B252B61F7B801C70167
:104BB0000E943825A1960FB6F894DEBF0FBECDBF78
:104BC000DF91CF911F910F91FF90EF90BF90AF9029
:104BD0009F908F9008952115310541F4DC01ED91EE
:104BE000FC910190F081E02D642F09940C94A22592
:104BF0009A01462F50E060E070E00C94EB250F9393
:104C00001F93CF93DF93EC010E94F8258C01CE0116
:104C10000E947A25800F911FDF91CF911F910F91F4
:104C200008959A01AB0160E070E00C94EB250F93BE
:104C30001F93CF93DF93EC010E9411268C01CE01CC
:104C40000E947A25800F911FDF91CF911F910F91C4
:104C500008950F931F93CF93DF93EC010E94EB25F0
:104C60008C01CE010E947A25800F911FDF91CF9198
:104C70001F910F910895CF92DF92EF92FF920F93C1
:104C80001F93CF93DF932115310581F4DC01ED9162
:104C9000FC910190F081E02D642FDF91CF911F9165
:104CA0000F91FF90EF90DF90CF9009942A3031055B
:104CB00001F577FF1DC06A017B01EC016DE20E94E6
:104CC00073258C0144275527BA014C195D096E09DB
:104CD0007F092AE0CE010E94A225800F911FDF915B
:104CE000CF911F910F91FF90EF90DF90CF9008959B
:104CF0002AE0DF91CF911F910F91FF90EF90DF900D
:104D0000CF900C94A2259A01AB01770F660B770B1D
:104D10000C943B260F931F93CF93DF93EC010E94DB
:104D200083268C01CE010E947A25800F911FDF918E
:104D3000CF911F910F9108957F928F929F92AF9282
:104D4000BF92CF92DF92EF92FF920F931F93CF9378
:104D5000DF938C016A017B01722E9A01AB01C701BE
:104D6000B6010E941D2C882319F068EF72E027C05D
:104D700046015701E894B7F82FEF3FEF4FE75FE7A1
:104D8000C501B4010E941D2C81110DC02FEF3FEF12
:104D90004FE75FE7C501B4010E94532A18161CF4BF
:104DA0006CEF72E00CC02FEF3FEF4FE75FE4C701FD
:104DB000B6010E94AB2B181694F460E073E0C801B2
:104DC000DF91CF911F910F91FF90EF90DF90CF90E7
:104DD000BF90AF909F908F907F900C9438252FEFCD
:104DE0003FEF4FE75FECC701B6010E94532A87FDF2
:104DF000E4CF20E030E0A901C701B6010E94532AA8
:104E000087FF0AC06DE2C8010E947325EC01F7FA22
:104E1000F094F7F8F09402C0C0E0D0E0B12C60E06C
:104E200070E080E09FE37B1441F020E030E040E25E
:104E300051E40E94582AB394F6CFA70196010E942C
:104E4000E7296B017C010E94CA2A4B015C012AE020
:104E5000AB01BC01C8010E94A225C80FD91F772051
:104E6000B9F1C501B4010E94F92A9B01AC01C70147
:104E7000B6010E94E6296B017C016EE2C8010E9426
:104E80007325C80FD91F20E030E040E251E4C7018C
:104E9000B6010E94B02B4B015C010E94CA2A6B0133
:104EA0007C014AE050E0C8010E941126C80FD91FBA
:104EB000B60180E090E00E94F92A9B01AC01C50197
:104EC000B4010E94E6296B017C017A947110DBCF5A
:104ED000CE01DF91CF911F910F91FF90EF90DF9066
:104EE000CF90BF90AF909F908F907F9008950C943B
:104EF0009C2608958230E8F4E82FF0E0EE0FFF1FC3
:104F0000EF57FE4F71836083813041F080916900DB
:104F10008C7F482B40936900E89A0895809169003E
:104F2000837F440F551F440F551F482B4093690042
:104F3000E99A08951F920F920FB60F9211242F93A2
:104F40003F934F935F936F937F938F939F93AF9311
:104F5000BF93EF93FF93E0918101F0918201099556
:104F6000FF91EF91BF91AF919F918F917F916F9141
:104F70005F914F913F912F910F900FBE0F901F9017
:104F800018951F920F920FB60F9211242F933F93F3
:104F90004F935F936F937F938F939F93AF93BF9341
:104FA000EF93FF93E0918301F09184010995FF91C4
:104FB000EF91BF91AF919F918F917F916F915F9191
:104FC0004F913F912F910F900FBE0F901F9018950A
:104FD000CF92DF92EF92FF926115710581059105E5
:104FE00049F06B017C010E94032EA70196010E94EB
:104FF000582C03C060E070E0CB01FF90EF90DF9091
:10500000CF900895CF92DF92EF92FF920F931F936C
:10501000621773078407950784F489019A016B016D
:105020007C01C901B8016C197D098E099F090E9494
:10503000E8276C0D7D1D8E1D9F1D1F910F91FF9008
:10504000EF90DF90CF90089508950E94ED280E9480
:1050500024280E948E0ECBE7D3E20E94781220977C
:10506000E1F30E947B23F9CF0C94972C1F920F92AF
:105070000FB60F9211242F933F938F939F93AF936B
:10508000BF938091CE059091CF05A091D005B091AE
:10509000D1053091CD0523E0230F2D3720F4019663
:1050A000A11DB11D05C026E8230F0296A11DB11D4B
:1050B0002093CD058093CE059093CF05A093D00586
:1050C000B093D1058091D2059091D305A091D405DC
:1050D000B091D5050196A11DB11D8093D205909385
:1050E000D305A093D405B093D505BF91AF919F91FF
:1050F0008F913F912F910F900FBE0F901F90189599
:105100002FB7F8946091CE057091CF058091D005AE
:105110009091D1052FBF08953FB7F8948091D205A3
:105120009091D305A091D405B091D50526B5A89B43
:1051300005C02F3F19F00196A11DB11D3FBFBA2F29
:10514000A92F982F8827820F911DA11DB11DBC0189
:10515000CD0142E0660F771F881F991F4A95D1F74E
:1051600008958F929F92AF92BF92CF92DF92EF926B
:10517000FF926B017C010E948C284B015C01C114E1
:10518000D104E104F10401F10E94E5290E948C2878
:10519000DC01CB0188199909AA09BB09883E934013
:1051A000A105B10560F321E0C21AD108E108F108B8
:1051B00088EE880E83E0981EA11CB11CC114D10496
:1051C000E104F10419F7DBCFFF90EF90DF90CF906F
:1051D000BF90AF909F908F900895789484B582602F
:1051E00084BD84B5816084BD85B5826085BD85B58B
:1051F000816085BDEEE6F0E0808181608083E1E83A
:10520000F0E0108280818260808380818160808371
:10521000E0E8F0E0808181608083E1EBF0E0808174
:1052200084608083E0EBF0E0808181608083EAE746
:10523000F0E08081846080838081826080838081CF
:10524000816080838081806880831092C10008958E
:10525000833081F028F4813099F08230A1F00895F4
:105260008730A9F08830B9F08430D1F48091800083
:105270008F7D03C0809180008F7780938000089598
:1052800084B58F7702C084B58F7D84BD08958091E9
:10529000B0008F7703C08091B0008F7D8093B00005
:1052A0000895CF93DF9390E0FC01EB54F64F2491E7
:1052B000FC01E753F64F8491882361F190E0880F59
:1052C000991FFC01EF50F64FC591D491FC01E951B3
:1052D000F64FA591B491611109C09FB7F8948881E8
:1052E000209582238883EC912E230BC0623061F4D9
:1052F0009FB7F8948881322F309583238883EC916F
:105300002E2B2C939FBF06C08FB7F894E8812E2BCD
:1053100028838FBFDF91CF9108951F93CF93DF93A1
:10532000282F30E0F901EF55F64F8491F901EB5445
:10533000F64FD491F901E753F64FC491CC23C1F055
:10534000162F81110E942829EC2FF0E0EE0FFF1F8D
:10535000E951F64FA591B4919FB7F894111104C08B
:105360008C91D095D82302C0EC91DE2BDC939FBFAB
:10537000DF91CF911F910895CF93DF93282F30E0D5
:10538000F901EF55F64F8491F901EB54F64FD491A2
:10539000F901E753F64FC491CC2391F081110E949B
:1053A0002829EC2FF0E0EE0FFF1FE352F64FA591F6
:1053B000B491EC91ED2381E090E021F480E002C013
:1053C00080E090E0DF91CF91089508955058BB2779
:1053D000AA270E94FE290C94712B0E94632B38F09F
:1053E0000E946A2B20F039F49F3F19F426F40C94A4
:1053F000602B0EF4E095E7FB0C945A2BE92F0E94EA
:10540000822B58F3BA17620773078407950720F0B9
:1054100079F4A6F50C94A42B0EF4E0950B2EBA2F7C
:10542000A02D0B01B90190010C01CA01A0011124AA
:10543000FF27591B99F0593F50F4503E68F11A1656
:10544000F040A22F232F342F4427585FF3CF4695E7
:1054500037952795A795F0405395C9F77EF41F1609
:10546000BA0B620B730B840BBAF09150A1F0FF0FD3
:10547000BB1F661F771F881FC2F70EC0BA0F621FBF
:10548000731F841F48F4879577956795B795F795AF
:105490009E3F08F0B0CF9395880F08F09927EE0F44
:1054A0009795879508950E94362B08F481E008951A
:1054B0000E946C2A0C94712B0E946A2B58F00E9457
:1054C000632B40F029F45F3F29F00C945A2B5111C3
:1054D0000C94A52B0C94602B0E94822B68F39923CB
:1054E000B1F3552391F3951B550BBB27AA276217E0
:1054F0007307840738F09F5F5F4F220F331F441FED
:10550000AA1FA9F335D00E2E3AF0E0E832D0915020
:105510005040E695001CCAF72BD0FE2F29D0660F0D
:10552000771F881FBB1F261737074807AB07B0E850
:1055300009F0BB0B802DBF01FF2793585F4F3AF056
:105540009E3F510578F00C945A2B0C94A52B5F3F8D
:10555000E4F3983ED4F3869577956795B795F795DC
:105560009F5FC9F7880F911D9695879597F90895C4
:10557000E1E0660F771F881FBB1F62177307840760
:10558000BA0720F0621B730B840BBA0BEE1F88F76F
:10559000E09508950E948A2B88F09F5798F0B92FC4
:1055A0009927B751B0F0E1F0660F771F881F991F58
:1055B0001AF0BA95C9F714C0B13091F00E94A42B2B
:1055C000B1E008950C94A42B672F782F8827B85F3B
:1055D00039F0B93FCCF3869577956795B395D9F7B0
:1055E0003EF490958095709561957F4F8F4F9F4FBA
:1055F0000895E89409C097FB3EF4909580957095C6
:1056000061957F4F8F4F9F4F9923A9F0F92F96E90E
:10561000BB279395F695879577956795B795F11183
:10562000F8CFFAF4BB0F11F460FF1BC06F5F7F4F20
:105630008F4F9F4F16C0882311F096E911C0772332
:1056400021F09EE8872F762F05C0662371F096E83B
:10565000862F70E060E02AF09A95660F771F881F0A
:10566000DAF7880F9695879597F90895990F0008AE
:10567000550FAA0BE0E8FEEF16161706E807F90724
:10568000C0F012161306E407F50798F0621B730BBF
:10569000840B950B39F40A2661F0232B242B252B40
:1056A00021F408950A2609F4A140A6958FEF811DE3
:1056B000811D089597F99F6780E870E060E0089584
:1056C0009FEF80EC089500240A941616170618061A
:1056D0000906089500240A941216130614060506F6
:1056E0000895092E0394000C11F4882352F0BB0F87
:1056F00040F4BF2B11F460FF04C06F5F7F4F8F4FEA
:105700009F4F089557FD9058440F551F59F05F3F24
:1057100071F04795880F97FB991F61F09F3F79F0D3
:1057200087950895121613061406551FF2CF469555
:10573000F1DF08C0161617061806991FF1CF8695D7
:105740007105610508940895E894BB2766277727BB
:10575000CB0197F908950E94362B08F48FEF089536
:105760000E94C32B0C94712B0E94632B38F00E9473
:105770006A2B20F0952311F00C945A2B0C94602B7B
:1057800011240C94A52B0E94822B70F3959FC1F3DA
:10579000950F50E0551F629FF001729FBB27F00DDF
:1057A000B11D639FAA27F00DB11DAA1F649F662734
:1057B000B00DA11D661F829F2227B00DA11D621F83
:1057C000739FB00DA11D621F839FA00D611D221F3D
:1057D000749F3327A00D611D231F849F600D211D21
:1057E000822F762F6A2F11249F5750409AF0F1F0A4
:1057F00088234AF0EE0FFF1FBB1F661F771F881F0D
:1058000091505040A9F79E3F510580F00C945A2BBF
:105810000C94A52B5F3FE4F3983ED4F386957795DF
:105820006795B795F795E7959F5FC1F7FE2B880FB2
:10583000911D9695879597F908950E94362B880BB0
:10584000990B0895AA1BBB1B51E107C0AA1FBB1FE0
:10585000A617B70710F0A61BB70B881F991F5A95FC
:10586000A9F780959095BC01CD010895A1E21A2E6B
:10587000AA1BBB1BFD010DC0AA1FBB1FEE1FFF1FF4
:10588000A217B307E407F50720F0A21BB30BE40B44
:10589000F50B661F771F881F991F1A9469F760958B
:1058A0007095809590959B01AC01BD01CF01089545
:1058B000052E97FB1EF400940E946F2C57FD07D015
:1058C0000E94362C07FC03D04EF40C946F2C50959C
:1058D0004095309521953F4F4F4F5F4F08959095DC
:1058E0008095709561957F4F8F4F9F4F0895A29F30
:1058F000B001B39FC001A39F700D811D1124911DA4
:10590000B29F700D811D1124911D08950E94772C66
:10591000A59F900DB49F900DA49F800D911D112403
:105920000895EE0FFF1F0590F491E02D09940F9359
:105930001F93CF93DF938230910510F482E090E0C3
:10594000E091D805F091D90520E030E0A0E0B0E08A
:10595000309719F14081518102811381481759070D
:10596000C8F08417950769F4109731F012960C93DC
:10597000129713961C9327C00093D8051093D9054E
:1059800022C02115310519F04217530718F49A0166
:10599000BD01EF01DF01F801DBCF21153105F9F081
:1059A000281B390B2430310580F48A819B816115D5
:1059B000710521F0FB019383828304C09093D90584
:1059C0008093D805FE01329644C0FE01E20FF31F1A
:1059D0008193919322503109398328833AC02091D1
:1059E000D6053091D705232B41F420910201309147
:1059F00003013093D7052093D60520910001309103
:105A000001012115310541F42DB73EB74091040144
:105A100050910501241B350BE091D605F091D70577
:105A2000E217F307A0F42E1B3F0B2817390778F075
:105A3000AC014E5F5F4F2417350748F04E0F5F1FD4
:105A40005093D7054093D6058193919302C0E0E02F
:105A5000F0E0CF01DF91CF911F910F910895CF9387
:105A6000DF93009709F481C0FC0132971382128200
:105A7000A091D805B091D905109781F4208131818A
:105A8000820F931F2091D6053091D705281739072B
:105A900051F5F093D705E093D60567C0ED0120E0FE
:105AA00030E0CE17DF0740F44A815B819E0141154B
:105AB0005105F1F0EA01F5CFD383C28340815181D2
:105AC000840F951FC817D90759F488819981840FCD
:105AD000951F0296918380838A819B819383828321
